:020000041000EA
:1000000000B5324B212058609868022188439860DF
:10001000D860186158612E4B002199600221596106
:100020000121F02299502B49196001219960352056
:1000300000F044F80222904214D00621196600F024
:1000400034F8196E01211966002018661A6600F04E
:100050002CF8196E196E196E052000F02FF8012189
:100060000842F9D1002199601B49196000215960AB
:100070001A491B48016001219960EB211966A021F2
:10008000196600F012F800219960164914480160C1
:100090000121996001BC002800D000471248134993
:1000A000086003C880F30888084703B5996A0420EC
:1000B0000142FBD001200142F8D103BD02B5186610
:1000C0001866FFF7F2FF186E186E02BD00000240BE
:1000D000000000180000070000035F00212200005C
:1000E000F4000018222000A00001001008ED00E03C
:1000F00000000000000000000000000074B24E7A12
:1001000000200420F7010010CB010010493101103C
:10011000C9010010C9010010C9010010C901001077
:10012000C9010010C9010010C9010010CF01001061
:10013000C9010010C9010010D1010010D301001045
:10014000C1010010C1010010C1010010C101001067
:10015000C1010010C1010010C1010010C101001057
:10016000C1010010C1010010C1010010C101001047
:10017000C1010010C1010010C1010010C101001037
:10018000C1010010C1010010C1010010C101001027
:10019000C1010010C1010010C1010010C101001017
:1001A000C1010010C1010010C1010010C101001007
:1001B000C1010010C1010010C1010010C1010010F7
:1001C000EFF30580103800BE00BE00BE00BE00BECA
:1001D00000BE00BEF2EB887120110610441106101B
:1001E0003802001090A31AE700201E49086006C8D4
:1001F00081F3088810471C480068002801D00020BF
:10020000F3E70DA40ECC002902D000F012F8F9E7B4
:100210001649174A002000E001C19142FCD115495E
:100220008847154988471549884700BEFDE701C939
:1002300001C29A42FBD370474411061040010020CE
:10024000B84F0020BC5F061000000420000004200E
:10025000BC5F061000100420001004200000000005
:100260007047000008ED00E0000000D0B84F00200B
:10027000D87F0120594C001091100010194C00102B
:1002800001207047002801D1014870470020FCE799
:100290000029002070B504000D0013F06BF8230056
:1002A00002002900034804F04DFF034807F014FA48
:1002B000FEE7C046902F051078563412F0B5DE46A2
:1002C00057464E464546E0B5914C9248A54404F049
:1002D000B1FEFA20C00001F043FE0EF0E3FB00285F
:1002E00001D100F003FE0020FFF7CCFF002801D170
:1002F00000F035FE0EF0CAFB874B011E129318600A
:1003000001D100F0FAFD854D012228000BF064FCBC
:10031000040013F02FF8824B01002200180004F0B3
:1003200011FF0D2C01D100F0ECFD002C01D000F0EC
:1003300009FE7C4B0F9414937B4B15937B4B1693C8
:100340007B4B0E9307F0D2F97A4B0100984208D00C
:10035000794804F0F7FE07F0C9F9764B010098429E
:10036000F6D1149804F066FE0F9B159A402126A83A
:1003700004F076FB2822129B1C681CAB9B181B7890
:100380002F2B3ED026AD002C07D020004BF0FCFEDA
:100390002018013803782F2B31D0684A80212300A0
:1003A0004900009546A804F05BFB46A9169804F0A6
:1003B000C9FE0A2246A9C6A80BF0F2FC041E01D011
:1003C00000F0CAFD0E9852F09BFD5D4F5D48396804
:1003D000219404F0B7FE79685B4804F0B3FE7B68B3
:1003E000002B02D03968002910D1584804F022FEB1
:1003F0000E9852F02DFDC6A80CF0FAFBA2E7544A65
:10040000CCE71CAB29259C466544BCE7514804F069
:1004100099FE3868002817D000244F4D7B682800CB
:10042000195D04F08FFE8C2101342000490002F098
:1004300063FA002965D038688442EFD3030703D0FC
:100440000A2004F0ABFD386802F0F0FE041E01D172
:1004500000F0F6FD414E300004F0ECFD404804F0A1
:1004600071FE39683F4804F06DFE396800290BD0F1
:1004700030220023944631257868C25C002A3AD0A5
:10048000E55401339942F8D8300004F0D3FD00233D
:100490003D68220029003448219304F053FEE67899
:1004A000A378627821783148009604F04BFE2A0048
:1004B000210021ABC6A80CF0BBF8050006002900FE
:1004C000219A2B4804F03EFE002D59D0200002F066
:1004D000CBFE290027483B68219ABB4604F032FE38
:1004E0005B46310024481B68219A04F02BFE28004B
:1004F0002249FFF7CFFE6246E25401339942BCD84D
:10050000C2E70A2004F04AFD3868844286D395E7A2
:1005100084EAFFFFA42F05105C5C0020B84F002088
:1005200030300510D8300510F03005101C310510A2
:10053000B877002001EFCDABA830051014310510BD
:10054000A87F012058310510783105109C31051025
:100550000C310510CC310510E83105101C320510A6
:10056000203205103C32051040320510783205105B
:10057000B0320510103305105833051098330510AC
:10058000C6A80CF0D1F9050006002900B14804F016
:10059000D9FD200002F068FE29003B68219AAE4890
:1005A00004F0D0FD002D01D000F0F4FC3A68219B4E
:1005B0009A4201D000F0EEFCC6A80CF019FBA74A45
:1005C0000F9B402136A804F04BFA6822129B1C684E
:1005D0001CAB9B181B782F2B01D100F061FC36ADB2
:1005E000002C08D020004BF0CFFD201801380378F4
:1005F0009B4A2F2B00D09B4A8021230086A84900CC
:100600000095179004F02CFA1CA8A1238446DB0067
:1006100063440A22180017990BF0C2FB002801D08E
:1006200000F0A1FC1EA817F0C7FF1E9B1F9C1A9389
:100630001B9400247B6823AD10938C20400002F0B3
:10064000F5FD2860002801D100F0BDFC013404351F
:10065000032CF2D18C20400002F0E8FD8C21239B7A
:1006600083469946259B0022249D18934900002823
:1006700001D100F0F2FC1098835C5C1EA3415B4248
:10068000AB5401328A42F7D18C2100221098189C79
:100690001930FF304900835C5E1EB3415B42A354B6
:1006A00001328A42F7D1189B00210B931300904628
:1006B0004A464E46DA469946059122A90C95049180
:1006C00009928C22504652002E2102F0E5FD3200A4
:1006D0003B004E465746AB469A4691461CACA1207D
:1006E000A4468C22C0003900049B520060440BF0E9
:1006F0009FFF041E00D0B7E0229B434500D0B3E02B
:10070000059B193601330593FF36F02B00D1AEE37C
:10071000EF2B07D14B465246B146BA465D4617000D
:100720001E00CEE70022109B099899198B5C5C1E75
:10073000A3415B42835401324245F7D118222E2354
:100740000B99FF3248783B70BB54099A1390137889
:100750000C98119304785378023208927A1C06940C
:100760000A9244780122A4460D780D92139A023021
:100770000231029019976046119F07916D00540055
:1007800013963AE0502A60DC2E220A99069E0A70DF
:10079000029942424878111BC91A079B76005C787F
:1007A000921B089B121A5B787E0062449219D21841
:1007B00009186400D61761189219C9187240CE172B
:1007C000891971405218C82A3DDC502A3FDC2E227C
:1007D0000A99029E4A7002310A9116210236029647
:1007E000079E0D9A02360796089E02320236FF31A6
:1007F0000D9208968A4200D17BE23E00069A029949
:1008000052420978551BED1B069169181191410060
:10081000521A0699079D089F521A3F7892192D780F
:100820005E0092191199D2196D00D61769189219A4
:10083000C9197240CE178919714052189C46C82AAE
:10084000A0DD2322A1E72322C2E72B229DE72B2252
:10085000BEE7C046E832051010330510A833051076
:100860000C310510143105105D46BB46484602F0B8
:10087000FBFC280002F0F8FC189802F0F5FC584642
:10088000574602F0F1FC261C002C00D10126F6B2DE
:100890001EA817F091FE1A9A1B9B1E9C1F9DA41A5E
:1008A0009D41200029000294039502F03BFB0022A9
:1008B000C44B02F066FA0400C3480D0004F0BAFB12
:1008C000C24BC34999460C22180035F039FA220070
:1008D0002B00484635F046FCBE4B052219000400AB
:1008E0001A9335F02DFA02980399FA220023920008
:1008F00002F028F802000B00200035F079FBB64B1F
:1009000005221900984635F01BFAA1231CAA94462B
:10091000DB00634418000CF06BF9002E00D035E3C7
:10092000AE4A0F9B402136A804F09AF86822129B29
:100930001D681CAB9B181B782F2B00D1D1E236AC65
:10094000002D08D028004BF01FFC28180138037830
:10095000A34A2F2B00D0A34A80212B0049001798CF
:10096000009404F07DF81CA8A1238446DB006344B6
:100970000A22180017990BF013FA002800D0F2E2AF
:10098000994802F053FC1190002800D109E37D68DA
:10099000964B060028009C4600241930FF30654421
:1009A0000300193BFF3B32191978023311700132F1
:1009B0009842F9D18C239B009C4660448C3485423C
:1009C000EED11EA817F0F8FD1E9B1F9C1C931D94D2
:1009D000002423AD8C2002F029FC2860002800D1DF
:1009E00022E301340435032CF4D18C2002F01EFCE8
:1009F000259B83460022239F249D1793002800D126
:100A000036E311998B5C581E83415B42AB54013233
:100A10008C2AF7D10022119917988C318B5C5C1EBF
:100A2000A3415B42835401328C2AF7D1179BBA460B
:100A30000D938C23069300235F462E000C95D3461E
:100A40004546059322AB04938C222E213800D846CC
:100A500002F022FCB3465646CA46A9461CACA12069
:100A6000A446C0008C223900049B60440BF0E0FDDA
:100A7000041E00D0BCE0229B8C2B00D0B8E0059B6C
:100A8000069C01338C3405930694782B00D10DE23B
:100A9000772B05D14D46D146B2465E46C346D3E7D5
:100AA000A4460022119961448B5C581E83415B422D
:100AB000B35401328C2AF7D12E23013A3B70BB5438
:100AC0000D9A0C991578547802320A92B21C089249
:100AD0007A1C0B9201220878337802904878023110
:100AE00007930991737810926D0064001897199616
:100AF0003BE0502A62DC2E220B99029E0A70099973
:100B0000424276004878111B921B139EC91AB446C4
:100B10000A9B079E5C78089B121A5B7876006244F9
:100B20009219D21809186400D61761189219C918B9
:100B30007240CE17891971405218C82A3CDC502ADD
:100B40003EDC2E22099E0B99023609960A9E4A70B7
:100B50000236109A0A96089E02320236023110922C
:100B600008960B91892A00D124E10999089E029ADE
:100B700009783678079F5242029107964600551B26
:100B8000921B029EED1B921BD219079F6918BC464F
:100B90000A9D5E002D78921962446D00D61769187F
:100BA000921961447240CE178919714052181393FB
:100BB000C82A9EDD23229FE72322C3E72B229BE73F
:100BC0002B22BFE780842E41E0330510846C002087
:100BD00054340510643405106C3405108834051045
:100BE0000C31051014310510A041000098070100D8
:100BF0005D46BB464746380002F036FB280002F04F
:100C000033FB179802F030FB5846C84602F02CFB25
:100C1000D146261C002C00D10126F6B21EA817F0E2
:100C2000CBFC1E9C1F9D119802F01EFB1C9A1D9B65
:100C3000A41A9D41200029000294039502F072F944
:100C4000E74B002202F09DF804000D002222E54946
:100C5000484635F075F822002B00484635F082FAF8
:100C600005221A99040035F06BF802980399FA22CC
:100C70000023920001F066FE0B000200200035F018
:100C8000B7F90522414635F05BF8A1231CAA94462A
:100C9000DB00634418000BF0ABFF002E00D07CE1BA
:100CA0000E9852F0D5F80F9BCF48013319001C0065
:100CB0000F9304F047FA032C01D0FFF743FB002207
:100CC000129B100019680AF087FF040012F052FB13
:100CD000C64B01002200180004F034FAFA2080000C
:100CE00001F03EF9C24806F0F7FCC24804F0A2F950
:100CF000FEE71823FF339C464A465B46199F0C9833
:100D00000B9C7D180999139E153015341531BC4480
:100D1000E146FF30FF34FF310696079708920A93A9
:100D200009E0502B44DC2E232B70013501300134B7
:100D300001314D452FD08E780B7802964E789C4627
:100D40007600B34602784378877852425B00D31A24
:100D5000029EDB1B63445B44B3465B44DE179B1976
:100D6000734026787600921B6646921B029ED2192B
:100D7000B446A7787F00D2196244D6179219724000
:100D80009B18C82BCDDD23232B7001350130013496
:100D900001314D45CFD1089B0C9A99460A9B069E7E
:100DA0009B46099B09920B9A079F0C920B9395E423
:100DB0002B23B9E78B23189F199E9C4642463D0082
:100DC00031005B460C980D9CBC44E0468935883068
:100DD000883488310797089609920A9309E0502BC6
:100DE00043DC2E232B700135013001340131A8453D
:100DF0002FD08E7883780296A6789C467600B346EC
:100E0000027823780F7852425B00D31A029EDB1BD4
:100E100063445B44B3465B44DE179B1973404678DA
:100E20007600921B6646921B029ED219B4464F78FA
:100E30007F00D2196244D617921972409B18C82BB2
:100E4000CDDD23232B700135013001340131A8455C
:100E5000CFD1099B089E98460A9B0D9A9B4633006A
:100E6000079F0C9E0D930C92F8E52B23BAE71CAA62
:100E7000A12394465D46BB46DB0063440600180090
:100E80000BF052FD484602F0EFF9280002F0ECF9B1
:100E9000189802F0E9F95846574602F0E5F9F7E4E8
:100EA0001CAB69259C466544FFF79AFB1CAAA1234D
:100EB00094465D46BB464746DB0063440600180087
:100EC0000BF032FD380002F0CFF9280002F0CCF927
:100ED000179802F0C9F95846C846D14602F0C4F93D
:100EE0009CE61CAB69249C46644429E5424804F016
:100EF000A1F8424804F09EF8FEE7414804F09AF851
:100F0000F7E7AA21092389001CAA5218138000239D
:100F10001CA9A1228C46C793C893C9938023129E13
:100F2000D2005B016244C6A930680BF09DFE04004C
:100F300012F020FA334B01002200180004F002F9ED
:100F4000002C13D0200012F015FA2F4B01002200C4
:100F5000180004F0F7F8CCE72C49FFF79BF92C4870
:100F600004F068F8C5E72B49FFF794F931680122CE
:100F700028000AF031FE040012F0FCF9264B0100B3
:100F80002200180004F0DEF8FFF7CFF93000234903
:100F9000FFF780F9BB46FFF7A3FA30001F49FFF7C0
:100FA00079F91F4804F046F80E9851F051FF1CAA39
:100FB000A1239446DB00634418000BF019FE1120B6
:100FC0001849FFF767F90025A5424FD01C211CAA3C
:100FD000AB005218D05802F047F90135F4E7C0468B
:100FE00080842E41EC34051010350510383505107D
:100FF000AFBEADDE58350510C42F0510903005107A
:101000000C300510443005107830051048310510BB
:10101000DC2F0510C8330510583005107434051046
:10102000AC340510D83405100025AC4229D01C2161
:101030001CAAAB005218D05802F016F90135F4E79B
:10104000114803F0F7FF0E9851F002FFC6A80BF00D
:10105000CFFD11200D49FFF71DF9484602F004F9B4
:10106000280002F001F9189802F0FEF811260FE4AA
:10107000380002F0F9F8280002F0F6F8179802F0AC
:10108000F3F81126CAE5C046EC31051014320510FC
:1010900070B515F04FF9224800F062FF214ED025BF
:1010A000300000F0C5FBFA210620890012F00CFD8B
:1010B000320006201C4914F037FE14F02DFB14F00A
:1010C0009FFB1A4806F096FB01242D062B6D1C424F
:1010D0000ED006F00BFB164B984210D0154B9842E1
:1010E000F4D1154803F0A6FF144803F0A3FFFEE770
:1010F000FA20800012F0F4FB14F040FCE6E7104800
:1011000003F098FF0F4803F095FF300051F0A0FE68
:1011100006F0FAFA0C4803F08DFF002070BDC046BF
:10112000B80B0000B8770020A87F0120BD02001096
:10113000AFBEADDE7856341294350510BC350510BF
:10114000503505107035051084350510094A8300A7
:101150009A1810B514684022544080322240064C40
:10116000C000A44663441A60044B9C46604441603E
:1011700010BDC04604C0014004D001400040014001
:10118000074B8000C3181B68C90092000A435A40ED
:101190000C231340034A9446604403607047C046E2
:1011A00004C0014004D00140054B8000C3181B68F7
:1011B0004B4001211940034B9C466044016070473D
:1011C00004C0014004D00140064B8000C3181B68D6
:1011D000054A090159409446302360440B4003609E
:1011E0007047C04604C0014004D001400123D02212
:1011F0008340120693629361094A83009A1811682A
:101200004022514080320A400649C0008C46634467
:101210001A60054B9C460523604443607047C046F6
:1012200004C0014004D0014000400140094A83004D
:101230009A1811684022514080320A400649C00085
:101240008C4663441A60054B9C461F2360444360F0
:101250007047C04604C0014004D001400040014036
:101260008023DB051868000F7047C0460FB400B537
:10127000084883B003F0DEFE049B002B07D005A9CD
:101280001800019103F03EFC034803F0D3FE012057
:1012900003F050FCD43505104C420510EFF31080DC
:1012A00072B6034A1368002BFCD0BFF35F8F704700
:1012B0002C0100D0BFF35F8F0022024B1A6080F335
:1012C000108870472C0100D070B5EFF3108C72B607
:1012D0000D4D2B68002BFCD0BFF35F8F0724CB088C
:1012E000C618C05C01230C40A3401C00044003420C
:1012F00007D118433070BFF35F8F2C608CF31088D8
:1013000070BD1000FFF7B2FF2C0100D0F8B54746C2
:10131000CE46884680B5EFF3108C72B6214D2C680E
:10132000002CFCD0BFF35F8F9A422CD8D40807273B
:10133000055D061901241740BC402C421FD007212F
:101340000127894609E0D408055D06194C46390095
:101350001440A1400C00294211D001329342F2D234
:1013600001204042BFF35F8F00220E4B1A608CF3C6
:10137000108800280FDBC0BCB946B046F8BD254335
:1013800010003570EEE7BFF35F8F00232B608CF306
:101390001088012040424346002BECD00898FFF70C
:1013A00065FFC0462C0100D0044A1078431CDBB214
:1013B000172B00D9102313707047C046A046002099
:1013C00010B5064B064C82B00100009318221F2373
:1013D0002000FFF79BFF02B010BDC046E4350510AA
:1013E0003C7300200021044B044ABFF35F8F02C30B
:1013F0009342FAD17047C046000100D0800100D06E
:10140000054B064A1360064A136053609360D3602D
:1014100013615361936170478080808000E400E035
:1014200004E400E01F2318401E3B8340002905D040
:10143000C021044A4900535013607047802201497B
:101440008B50FAE700E100E001228240034B1B6869
:1014500013405A1E9341D8B27047C04600E100E0E5
:1014600001238340014A13607047C04600E200E058
:10147000064B10309B688000C358054A00209B1A19
:101480005F229A424041C0B27047C04600ED00E082
:10149000A446002010B5EFF3108C72B60F4A136803
:1014A000002BFCD0BFF35F8F0D4B10309B6880008A
:1014B0001B580C4A934201D099420CD1084B9B68AF
:1014C0001950BFF35F8FBFF35F8F0022034B1A6089
:1014D0008CF3108810BD01F063F8C046240100D0E1
:1014E00000ED00E0C1010010F0B557464E46DE4663
:1014F0004546E0B58A4685B00600EFF3108972B61E
:1015000063490B68002BFCD0BFF35F8F0021614B58
:1015100059568C46002900DAB7E049000D005E4CB0
:101520006544AD0067190291B979103619705B4BAB
:10153000B1009B6801915B58191B5F2935D80121C7
:1015400018008843C679964200D875E09B46029BF6
:10155000019E9846039507E04D006D18AD00651992
:10156000EB7993424ED92800062141560029F3DA3F
:1015700045465B4601960295061D494D0396039E1E
:10158000043FBF1B3F05474E7F0D374366468780AC
:1015900086710298604480002418E27152464248E5
:1015A000A5802060A171A26018E040498B4200D064
:1015B0006BE03F4B3B4963533E4B0235043B65199F
:1015C0005B1B1B055B0D0B437B803B4BFA71BB80A8
:1015D000FF23BB715346BB6001233B432F4A019954
:1015E00092685350BFF35F8FBFF35F8F0022284B89
:1015F0001A6089F3108805B0F0BCBB46B246A94614
:10160000A046F0BD01964646029686885B46760562
:10161000B346061D039D03965E463615B346061D6A
:10162000B046C3445E4604356519751BE0262D059A
:101630006D0D36023543A2E7204BFA719C4603003C
:1016400066461B1B5B415E43360DB446AE1CB0467E
:10165000A0444646164B6353164B0435043B9B1B74
:101660001B05104E5B0D33437B806319C31A043B8B
:101670001B055B0D3343BB806346BB715346BB60A8
:10168000094B03603B000B43A8E700F089FFC0460D
:10169000240100D0D17F0120A446002000ED00E00D
:1016A00001BD000000E0FFFF01488047C1010010BC
:1016B00000A1FFFF0447002001BDFFFFAAAA000010
:1016C00070B501240443EFF30581EFF3108C72B67B
:1016D0002D4A1368002BFCD0BFF35F8F2B4A050007
:1016E0002B4BAD1A6D416B431B0D2A4D8900AE6823
:1016F0005BB27658A6422CD00621515699422CD086
:1017000012215156994234D01E215156994232D05D
:101710002A215156994230D03621515699422ED025
:1017200042215156994222D04E215156994228D0F9
:101730005A2151560724994210D0174A1178137034
:101740008171BFF35F8F00220F4B1A608CF31088FA
:1017500070BDAA68114C5450EFE7002461000919CC
:1017600089005218FF2191710D499180E5E7052408
:10177000F4E70124F2E70224F0E70324EEE704246F
:10178000ECE70624EAE7C046240100D0A446002086
:10179000AAAA000000ED00E0D17F0120C1010010E5
:1017A00001BDFFFF10B5084B084C82B0010000934B
:1017B000002205232000FFF7A9FD002801DB1F23DD
:1017C000181A02B010BDC04600360510D57F0120A2
:1017D000024B9C4661448900016070474000003420
:1017E00070B5114C114DAC420FD2FF262368002B6F
:1017F0000CD0FFF7D9FD01002000FFF7E9FFA6801C
:10180000BFF35F8F0834AC42F0D370BDFFF7CCFD5F
:1018100001002000FFF7DCFF2671BFF35F8F083463
:10182000AC42E3D3F1E7C046984F0020B84F002008
:1018300010B50400FFF7B8FD01002000FFF7C8FF56
:10184000FF232371BFF35F8F10BDC04610B50400A6
:101850000120FFF7B5FD034BC3189B002360BFF3C6
:101860005F8F10BD40000034034B9C4661448900EB
:101870000160BFF35F8F7047400000340A4B196866
:10188000EFF3108072B60A68002AFCD0BFF35F8FB6
:101890001B68BFF35F8F00221A6080F3108840BF7F
:1018A000002000217047C0469C7F0120F0B5DE4635
:1018B00057464E464546E0B583B0EFF30582032315
:1018C0001340B54A990052580091904601229A401F
:1018D0009346B24B1A60B24B01935B46B1484363E7
:1018E000434608229B5E9946002B3ADA43469B8882
:1018F0001BB2002B00DB9DE043469B79002B00D000
:10190000E1E0434608241C5F002C20DB43465A6973
:1019100063001B19DB00D3189D68DC686B1C00D1C9
:1019200003E1A048009984466144826A0B69AE1ABB
:101930009B1A9E4213D35A46036A1A420FD0994803
:1019400000F0C0FB8C4202DCC7D18542C5D940BF44
:1019500003B0F0BCBB46B246A946A046F0BD0D613F
:10196000EDE7424652695B0092464B44DB009A44E5
:1019700053469E68DF6800F0A5FB8F42B6DC00D1BD
:10198000F8E0002F00DAD9E05246534654691B694B
:10199000019A934200D1CCE0414652460820085EAD
:1019A0005288000421001043984704000D002300D2
:1019B0002B4300D1C2E0002D00DBDFE03000390016
:1019C000001BA94153469860D96000229A5E002A04
:1019D00000DA8BE743465D6953009C18E4002C193C
:1019E000A768E4688C4200DD80E702D1874200D915
:1019F0007CE74646328108360DE08C4200D1C6E0D5
:101A00001E000023F25E002A0ADB53009C18E4004B
:101A10002C19A768E4689B18DB00EB188C42ECDDFE
:101A200053461A804B46338043469B881BB2002B9B
:101A300000DA61E743461A69EFF3108172B6136862
:101A4000002BFCD0BFF35F8F43469E8801234246A4
:101A50005B42938036B21369BFF35F8F00221A6036
:101A600081F31088002E00DA46E743465D690833AB
:101A700042469C467700BF19FF00EF19BB686046DD
:101A800098460823D15E9246FC68002907DA0EE0EA
:101A9000A24246D018000023C15E002906DB4B009D
:101AA0005B18DB00EB18DA68A242F1DD52460680D3
:101AB0000023FE5E3980002EDCDA904643469B7997
:101AC000002B00D11DE70023424693714346464652
:101AD0000821595E08364B1C00D138E74746894635
:101AE000556902E006004B1C18D04B005B18DB0068
:101AF000E8180A008C46E95E43881BB2002BF1DA35
:101B000001235B42DC178360C4604A4503D0318007
:101B10003B8903803A81E1464B1CE6D1B8464C46EE
:101B2000F2E69A684245B5D9C0E7631C00D0F8E6F2
:101B300005E7200023699847002825D153464246EF
:101B40001B8813811269EFF3108372B611680029A4
:101B5000FCD0BFF35F8F4246514652880A8042460E
:101B6000494651801269BFF35F8F0021116083F3F2
:101B70001088BBE6864200D803E7B7E6094800F0C4
:101B8000A1FA001969411DE7656824680FE78742DB
:101B900000D835E744E7C046D07700203C700540C8
:101BA000AD1800100040054070B52E4C2569002D81
:101BB00004D00A212C48FFF70BFE70BD2B4E0321E9
:101BC000300000F075FAE660FFF7EEFB284B0322C9
:101BD0009C46D02322701B061B6801216370254B95
:101BE0006044A3600F23800020610220638063694A
:101BF0004942A18019800231198647311D8358520C
:101C000018315A5275325C39995218320131995251
:101C1000183201319952183201319952083518326F
:101C20009D520231183299521832013199521832AC
:101C300001319952183201319952183201319952B9
:101C40001832013199520C4B0C49DC60013035627D
:101C5000FFF720FC01210320FFF7E4FB084B1D6088
:101C6000A7E7C046284700209C7F01200040054090
:101C700040000034FFFF1000D0770020AD180010A6
:101C8000386005400048704728470020F8B51F001D
:101C900008AB1B7804001600002B08D100F01AFADC
:101CA00032003B00121A8B41002B00DA53E022690C
:101CB000EFF3108072B61368002BFCD0BFF35F8F78
:101CC0000223E15E63694A005218D2009B18002982
:101CD00037DB1A8862802269BFF35F8F00251560A9
:101CE00080F31088069A9E60DF601A61079A5A6135
:101CF0005A8801325204520C101C002A1FD082B2A2
:101D00005880080410432669EFF3108772B63268D2
:101D1000002AFCD0BFF35F8FA2881A80A1802369BC
:101D2000BFF35F8F00221A6087F310880B49237876
:101D30008C4601329A40E36863441A60F8BD012082
:101D4000DDE72369BFF35F8F00221A6080F31088FC
:101D500001204042F2E70020F0E7C0463C200000AE
:101D600070B501000469EFF3108C72B6206800288A
:101D7000FCD0BFF35F8F02200D5E4C6968004019F4
:101D8000C0002418002D37DB208848800869BFF385
:101D90005F8F002606608CF31088E36063880498E8
:101DA000013320615B0405985B0CA26060611A1C22
:101DB000002B1FD093B22804628018430A69EFF306
:101DC000108C72B61368002BFCD0BFF35F8F8B882A
:101DD00023808D800B69BFF35F8F00221A608CF324
:101DE00010880B7801329A40CB6808498C466344CE
:101DF0001A6070BD0122DDE70B69BFF35F8F00221F
:101E00001A608CF3108801204042F2E73C20000069
:101E100010B543890A1493421ADD53009B18426996
:101E2000DB00D3180469EFF3108C72B62268002A25
:101E3000FCD0BFF35F8F5A88090494B2090C8A4220
:101E400008D00369BFF35F8F00221A608CF31088FB
:101E5000002010BD8022120214435C80012302691D
:101E60008371BFF35F8F002111608CF310880449E8
:101E700002788C469340C268012062441360E8E710
:101E80003C20000040787047F0B504000D000626A5
:101E90007642F717C64636196F4100B582B08F42B9
:101EA00014D811D000F016F932003B00121A8B4101
:101EB000002B17DC002B47D02000290000F048F948
:101EC00002B080BCB846F0BD8642EBD900220023A8
:101ED00016001F0000F0FEF832003B00121A8B4182
:101EE000002BE7DD00F0F6F832003B00121A8B41C0
:101EF000002B0ADB00230193154B32000093154899
:101F00003B00FFF72DFF0028D6DB00239C46B046A0
:101F1000114A124E736A9F4204D8B16A8845CBD9E0
:101F20009F42C9D11168EFF3108072B60B68002B85
:101F3000FCD0BFF35F8F1368BFF35F8F61461960FA
:101F400080F3108820BFE5E7002AB5D0CAE7C04675
:101F50007D180010284700209C7F0120004005408C
:101F600070B5060000F0B6F8FA2204000D00002358
:101F700030000021920001F075F8802300196941BA
:101F80001B06994202D3012002494042FFF77CFF21
:101F900070BDC046FFFFFF7FF0B5D6464F464646B0
:101FA000C0B504000D0082B0EFF305830F00002BD5
:101FB00031D13B4B98461B68834227D0394B994619
:101FC000DB689A464B4650461E7800F07BF80B00C3
:101FD000514602000436B60071582000891A8C461A
:101FE00029000026801A99418E4224DC21D020BF8E
:101FF0002D4A536ABB422AD3926A0120A24213D3CC
:1020000002B0E0BCBA46B146A846F0BD43465B68A4
:102010008B42D3D1EBE7244900204B6AAB42EFD38C
:102020008A6A0130A242EBD25B1B5A1E9341D8B29E
:10203000E6E78445DBD900F04DF822002B00121AA8
:102040008B41002B05DA184A536ABB42D4D20020D8
:10205000D6E700230193154B2200009348462B003E
:10206000FFF77EFE011EEEDD43461C605D600E4BF9
:102070005A6ABA4211D39B6AA3420CD34846FFF76F
:10208000C7FE094A0020536ABB42B9D3926A0130A5
:10209000A242B5D2C8E7BA42F0D120BFEEE7C046AF
:1020A0002047002028470020004005407D180010F0
:1020B00010B5024A0248FFF707F910BD1C3605109B
:1020C000407300200300416A0A00986A596A8A42F4
:1020D000FAD17047034B596A0A00986A596A9142CB
:1020E000FAD170470040054070B504000D00174A52
:1020F000536A1900966A536A8B42FAD1300019006C
:1021000024184D41AB4216D813D0104A2B00526A06
:10211000954203D90D494A6A9A42FCD39A4207D1A3
:102120000A4A02E0516A994202D1916AA142F9D366
:1021300070BDA642E9D9054B5B6A1C005A1CEFD062
:10214000012301246442E5175B42E3E700400540B8
:10215000064A536A9942FCD807D1044B02E05A6AF6
:10216000914202D19A6A8242F9D3704700400540F9
:1021700010B548F047F910BD0022835E0B4A944623
:1021800063444B610223C356013B0B610323C356D7
:10219000CB600523C3568B600623C3564B600723D1
:1021A000C3560B6001235B420B62704794F8FFFF3C
:1021B000F8B5DE464E4657464546E0B58B46050027
:1021C0000A991800160000F097FB0A9B6C001F028A
:1021D000324B64199C46A4006444636881469F4264
:1021E00000D967602B1FDBB29846012B30D9C02382
:1021F00080229B01E31812011A60294BAD00595946
:102200009A4600291BD17301E026226853401E40E4
:10221000802342465B01E3181E60012A30D98023E7
:1022200080229B01E31812011A6053464A466760F8
:102230005A51F0BCBB46B246A946A046F8BD586903
:1022400000F05AFB013043001B18033BFDD2DAE7D4
:102250005B46012BCBD1C02303229B01E3181A60FC
:10226000023AA3681A42FCD07301E0262268AD004E
:1022700053401E4080230A4A5B019246E3181E60C9
:102280005A462168514003220A401A6001225B46E7
:102290009A40A3681A42FCD0C1E7C04600800040C3
:1022A00048730020F0B546464F46D646C0B51F00DD
:1022B000344B44009C462418A40064446368884658
:1022C0001600FF2B02D880235B006360031FDBB284
:1022D0009A46012B30D9C02380229B01E3181201BA
:1022E0001A60294B85005959994600291BD1730161
:1022F000E026226853401E40802352465B01E318CB
:102300001E60012A30D9802380229B01E31812012C
:102310001A6080235B0063604B465F51E0BCBA46A5
:10232000B146A846F0BD586900F0E6FA0130430016
:102330001B18033BFDD2DAE74346012BCBD1C02368
:1023400003229B01E3181A60023AA3681A42FCD0E8
:102350007301E0262268850053401E4080230A4A0C
:102360005B019146E3181E604246216851400322FA
:102370000A401A60012342469340A2681342FCD0EF
:10238000C1E7C0460080004048730020014B800038
:10239000C058704748730020F8B5040021481E005B
:1023A00017000D0000F0A8FA0100380000F0A4FAB0
:1023B000069B36041B031E432368002B20DB1A4BAD
:1023C0001A49E3185A1E93418022920194465B42B7
:1023D0001B0B174A1B0363441360164A13601F004C
:1023E0000A689743FBD1144B2560E2182123A060B3
:1023F00013602368002BFCDA0823E6601360F8BD45
:102400003F2322681340AB42D9D1A3681B051B0DA3
:102410008342D4D1EE22E368D2021340B342CED13C
:10242000EDE7C046001BB7000040FDBF08C00040FC
:1024300000E0004000F000400430000010B58024AF
:102440001C4BE4051C6000281AD001231A4C1843C9
:102450001A4BDC611A4C44401C625962986280211C
:10246000144BC9051960174817490860E021C904D1
:102470001960002A07D18022144B12061A6010BD81
:102480000E4BD861EBE753019B1A9B009A188023EF
:1024900012015B049A4209D213000D490B60074BED
:1024A0005A608022094BD2051A60E8E7094B1A00EE
:1024B000F3E7C04600B00540D3C007B00080054038
:1024C0002D3FF84FFCFF01000820014000A005400F
:1024D000B4770020FFFFFF008023024A9B000B43DC
:1024E000D362704700800540142310B5010018889E
:1024F00004331B88984710BD162310B501001888B7
:1025000002331B88984710BDF8B54746CE4680B5C4
:102510000F1E19D014239946043304000025012608
:1025200098464B461888434621681B88984701C443
:10253000431E9841013540420640AF42F1D1300080
:10254000C0BCB946B046F8BD0126F8E7142370B503
:102550000400188804331B880D00054998470300C0
:102560000020002C01DB0130A04029009847C04624
:1025700055420000AA23064A1B0113608D235B000D
:10258000D3600449044B19605368002BFCDA704790
:102590000040024000B0FA00006002407047C046B0
:1025A00010B50148FEF762FE4036051070B5074DC4
:1025B000074EB54209D20024013E761BB60808CD6D
:1025C000984723000134B342F9D170BD202F051084
:1025D000602F051070B5074D074EB54209D2002493
:1025E000013E761BB60808CD984723000134B3425C
:1025F000F9D170BD542F0510602F0510054B064A08
:1026000006491A60064A074B1A6010000B68984387
:10261000FBD1704700E00040BFCDFBFE08C000408A
:10262000FE7F3C0000F00040044BDB6C002B03D12C
:102630008022034BD2021A607047C046000011503E
:102640004C201150044A054B1A60054A1368DB01FF
:102650008033FBD17047C046FFFFFF0100F0004010
:1026600008C000404022034B9A675A671A67DA662F
:102670007047C04600F0014010B5FEF7B3FE10BD34
:10268000F8B52749274C284D641AA4082200302C9D
:1026900000D930222800920000F004FE2F2C3BD8F5
:1026A00030202F21A700EB195B07204A001BDB0F0E
:1026B000091B052916D92600002B01D0EA51661CFA
:1026C000C01AE3189B004108EB18C900C9181A602A
:1026D0005A6008338B42FAD1012303421CD098433D
:1026E0008419A700EA51631C2F2C15D09B00EA50D7
:1026F000A31C2E2C10D09B00EA50E31C2D2C0BD0D9
:102700009B00EA50231D2C2C06D09B00EA50631D31
:102710002B2C01D09B00EA50054B9D60F8BDC046B4
:1027200000010010C001001000000020C1010010D5
:1027300000ED00E0002310B5294C82B0A367FFF73D
:1027400019FF0122274B1A60636C012BFCD1032275
:10275000254B1A60224A936B012BFCD10133009365
:102760000121224A22480433FFF716FE05230121E6
:102770000093204A2048FFF70FFE00220221042088
:102780001E4BFFF78FFD0022012105201C4BFFF798
:1027900089FD0022002107201A4BFFF783FD00224C
:1027A00000210820174BFFF77DFD8023DB000093FD
:1027B000002200210920134BFFF7FAFC0022104BE6
:1027C00000210620FFF76EFD0420FFF7DFFD0E4914
:1027D00000F092F801000020FFF77EFE02B010BD6D
:1027E000008000403CB0004030B00040002F6859ED
:1027F00000800240008C864700C00240001BB700EA
:1028000040597307006CDC0240420F000B4B1F3035
:102810005B68002B00D000BE05220100074B0006BC
:102820005A60FA3291430A001021400F0A43F031F6
:102830008140DA60024A4A401A61704790ED00E038
:102840000FFF0010024BD8688007C00F7047C046CA
:1028500000C005400F4B30B5DA68920718D5D9692A
:102860009C694B015B0F03711F230A0C1A404271D4
:102870003F220D0A15400A40C2712202120D028049
:102880002205120F234085718270C370012030BD74
:102890000020FCE700C0054001480421014B184717
:1028A0004047002009250010124A936F9B0815D25B
:1028B0009066D166002905D0FFE7FFE7FFE7516F7B
:1028C000106F704704B580210906C21751400028D7
:1028D00000D0C84350F0D4FA002104BDF0B5146E06
:1028E000556E576F166FFFF7E3FF1466556657670F
:1028F0001667F0BD000000D0114A936F9B0813D2F9
:1029000010665166002905D0FFE7FFE7FFE7516F2A
:10291000106F704704B5002801D00020C04350F06C
:10292000AFFA002104BDC046F0B5146E556E576F66
:10293000166FFFF7E5FF1466556657671667F0BD1B
:10294000000000D094464A4A926F9208624601D233
:1029500028E0C046F0B5464E346E756E776F366F20
:1029600000F020F89446424A146655665767166789
:102970006246F0BD94463E4A926F9208624601D28A
:1029800054E0C046F0B53A4E346E756E776F366FD0
:1029900000F04CF89446364A146655665767166739
:1029A0006246F0BD002B24DB11D000293EDA00B5D1
:1029B000C943404200D1013100F038F8C9434042D8
:1029C00000D10131DB43524200D1013300BD002A66
:1029D000EBD1002801D1002905D00020C90FC9077B
:1029E00001D1C043410800B550F0AAF900220023EC
:1029F00000BD00B500290ADBDB43524200D10133A0
:102A000000F014F8C943404200D1013100BDC94370
:102A1000404200D10131DB43524200D1013300F08A
:102A200005F8DB43524200D1013300BD002923D118
:102A3000002B18D1002A0CD0BC460D4F38667A66A0
:102A400000210023FFE7FFE7FFE77A6F386F674653
:102A50007047002801D00748010000B550F070F918
:102A60000022002300BD02000B000020002170475F
:102A7000000000D0FFFFFFFF002B00D0BFE0130CD1
:102A800028D1002AE7D080B4114F39667A66FFE773
:102A9000FFE730B4040C7B6F396F1B0423433B66A4
:102AA0007A66FFE7FFE7FFE7C04684B27B6F3D6FC2
:102AB0001B0423433B667A66FFE7FFE7C04600231B
:102AC0002C042D0C7A6F386F00196941B0BC704727
:102AD000000000D0F0B594460025140E01D112027A
:102AE0000835140F01D112010435940F01D1920061
:102AF0000235D40F01D152000135D40B0134254FDA
:102B00007C66254C3C660E0C93B2FFE7FFE7FFE7BF
:102B10003C6F6643360C7703BE467343DF0B5B04A2
:102B2000C01AB941130C7343DB18C91ACE086643A7
:102B3000360CB64493B273431F0F1B01C01AB94140
:102B4000130C73431F0B1B05C01AB941860D8F026E
:102B50003E436643360C092D24DB520A7243801A29
:102B60007703460A6643360C16235B1BDE40DF40C4
:102B7000BF1964466643821B704604350633010064
:102B8000D940A840C01900D30131A24206D2002387
:102B9000F0BD0000000000D0FFFFFFFF121B01305E
:102BA000F3D3F1E709277F1BFE406446A2B27243CC
:102BB000801A00D20139220C7243130C1204821ABB
:102BC00099410B007046043513370100F940A840C5
:102BD000801900D30131002B02D1A2420AD2F0BDEC
:102BE000013000D30131121BFAD2013BF8D1A242CD
:102BF00000D2F0BD013000D30131121BF7E7F0B570
:102C00001C0C00D080E00CB400251C0A04D11B026F
:102C1000160E3343120208351C0B04D11B01160F8C
:102C20003343120104359C0B04D19B00960F3343B0
:102C300092000235DC0B02D192185B4101351C0079
:102C4000971864410134464F7C66464C3C660E0C36
:102C5000FFE7FFE7FFE7C0463C6F6643360C7703AC
:102C6000BE4697B27743C01B00D20139C01B00D2C9
:102C700001399FB27743C91BC91B170C77437E04E8
:102C8000FF0B801BB941CE086643360C0C2D33DB9D
:102C9000B644120B1F053A431B0B97B27743C01B78
:102CA00000D201399FB27743C91B170C77433E040A
:102CB0003F0C801BB941860D8F023E436643292796
:102CC0007F1BFE400C3D7746AF40BF1930BCA2B21F
:102CD000ABB272437343801A9941220C7243130CB6
:102CE0001204801A994102000B000137001BA94110
:102CF000F9D2781E0021F0BD0C277F1BFE407746DD
:102D00007F0BAF40FF19E0E700245D1C07D0144F94
:102D10007D663966FFE7FFE7FFE7FFE73C6F95B2A7
:102D20009EB265436643401BB141150C1E0C6543C2
:102D3000664336042F0C3E432D04401BB14199429B
:102D400004D202000B0020000021F0BD01D190420E
:102D5000F7D3801A994101349942F2D3F6E7000083
:102D6000000000D0FFFFFFFF48404140484018B43A
:102D7000134B5B68019308BD18B4114B1B6801939A
:102D800008BD94460F4A926F920805D2624618B465
:102D90000B4BDB68019308BD0A4AF0B5146E556E03
:102DA000576F166F6246FFF7F2FF064A14665566C4
:102DB00057671667F0BD18B4014B9B68019308BDB7
:102DC00070560020000000D0FFB5504042405040F7
:102DD00059404B40594000E0FFB5154F4C00640D81
:102DE00003D0BC4204D10C0314D80020090D0905FE
:102DF0005C00640D03D0BC4204D11C030AD800223D
:102E00001B0D1B0501264B4009D44B4003D58B42BB
:102E100000D18242FFBD9942FCD19042FFBD0B43DD
:102E2000DB1803431343F5D0C9434918FFBD000025
:102E3000FF07000000B5FFF7CFFF01D0002000BD65
:102E4000012000BD00B5FFF7C7FF804100BDC046AF
:102E500000B5FFF7C1FF01D9002000BD012000BD72
:102E600000B5FFF7B1FF01D9002000BD012000BD72
:102E700000B5FFF7A9FF804100BD012040054A00D1
:102E8000121804D85A00121801D8002070470120E7
:102E9000704700000021002805D17047C117484045
:102EA000401AFAD0C90713B5064B1B6898470CBCEB
:102EB000441CA2401005120B0349091B09051943C4
:102EC000114310BD987E01201F04000010B54C0076
:102ED000620D8023D218DB00D21A5B057E2A10DD3A
:102EE0009E3A13DACC170903490819435242D140DC
:102EF000640001341532202A05DAD04008436043CB
:102F000010BD002010BD0846604310BDC80FC0189A
:102F1000013810BD18B4024B5B6A019308BD000074
:102F20007056002018B4024BDB6D019308BD000001
:102F300070560020C94211D300B54900490800224B
:102F400000F014F8002904D4002240428A411146BE
:102F500000BD80210906002000BD000018B4024B0E
:102F6000DB6E019308BD00007056002018B4024BC0
:102F70009B6F019308BD00007056002018B4024BEF
:102F8000DB6F019308BD00007056002010B50148AA
:102F9000FEF76CF94C360510132370B51D78012D22
:102FA00019D014DD1D48FFF7A7FA06001C48FFF7EB
:102FB000A3FA1C4C80223100200000F073F9022D8E
:102FC00006D01948FFF790FA184B186070BD154CE1
:102FD000174BA364F5E7174B124C23606360A360A3
:102FE000E36023616361A361E36123626362A362BF
:102FF000E36223636363A363E36323646364A3649F
:10300000E36423656365A365E36523666366A3667E
:10301000E36623676367A367E367D9E75344000068
:1030200053460000705600204C330000987E01206B
:10303000393000108D2F001007B5604601880A0A4C
:103040000230DF2AFAD1C9B2820804D3028840884C
:103050000004104300E00068014A5050039007BD8F
:103060007056002051434343C9188C46110C83B25B
:103070004B4310B4040C614392B280B2504362439C
:103080001C041B0C001910BC59411304120CC0186D
:1030900051416144704700004840414048400E4B58
:1030A0005B6818470C4B1B6818470C4A936F9B08CA
:1030B00002D2094BDB681847F0B5146E556E576F96
:1030C000166FFFF7F6FF054A1466556657671667D1
:1030D000F0BD014B9B6818479C7E0120000000D08A
:1030E00007B548404140484001E0C04607B54200AE
:1030F000120E03D0FF2A03D1420218D8C00DC0051A
:103100004A00120E03D0FF2A03D14A020FD8C90D7C
:10311000C9050122414005D4414001D5814207BD86
:10312000884207BD0143491801D0C043001807BDBC
:1031300000B5FFF7DBFF01D0002000BD012000BD7E
:1031400000B5FFF7D3FF01D9002000BD012000BD6D
:1031500001231B064200D21804D84A00D21801D815
:103160000020704701207047491A002808D10846FE
:1031700070470000C10FC90700D54042002817D092
:10318000F44603B40B4B1B68984706BC81409E383D
:103190004042803107D20B0607D04900490AC005DA
:1031A0001043084360470130F8E7490A8902F5E710
:1031B00070470000987E0120014B5B6A18470000B1
:1031C0009C7E012010B50148FEF750F84C420510D6
:1031D000132310B510481C78FFF78EF90100012C5D
:1031E0000AD003DD80220D4800F05CF80C48FFF7A0
:1031F0007BF90C4B186010BD084C5422200000F0E5
:1032000051F82200084980322368002B00D1216048
:1032100004349442F8D1E9E7534600009C7E012033
:103220004C330000987E0120C531001070B50400B9
:103230000A4E30004FF064FE200046F087FA050089
:1032400030004FF005FE002D05D0054B2C199C4297
:1032500001D8280070BD0348FEF708F8984F0020F9
:10326000000004206436051070B50400054D2800E8
:103270004FF046FE200046F073FA28004FF0E8FDBC
:1032800070BDC046984F002001480421014B1847EB
:103290005047002009250010014B1B68184700000B
:1032A00050470020014B5B68184700005047002042
:1032B00030B5EFF3108C72B60E4B1C68002CFCD0AE
:1032C000BFF35F8F05680C68A54209D002680A60E9
:1032D000BFF35F8F00221A608CF31088002030BD8E
:1032E0000260BFF35F8F00221A608CF31088012008
:1032F000F5E7C046340100D010B5FFF797FF10BDC9
:1033000010B5FFF793FF10BD10B5FFF7ADFF10BD6F
:1033100010B5FFF7A9FF10BD10B5FFF7A5FF10BD51
:103320009A4200D2885470477047C046F8B5574655
:10333000DE464E464546E0B599460A9B07009A464A
:103340000D9B884693460B9C9B073BD10C9B9C4254
:103350003DD21E1B0B9415000C005E442A004B4608
:10336000013521002020B847B542F7D1A0460B9C7B
:10337000002C20D0454636195346321B013C185DBF
:1033800029004B46B847002CF6D12B003500984653
:103390000D9B9B070FD55B46EC1A0C9BA3420AD9E9
:1033A000464698462A004B46310020200134B84753
:1033B00001354445F6D32800F0BCBB46B246A946C9
:1033C000A046F8BD16001500002CD3D1E0E716008A
:1033D000002CCFD11500EEE7F0B54F464646D64655
:1033E000C0B584B098460EAB1B7894469946129BA4
:1033F0000D9C109F119E9A0725D4002E65D1BC42CA
:1034000021D201221A409246202C00D1E9E00C9AE8
:10341000551E302202E0202C00D17BE001342A55D9
:10342000A742F8D85246002A0DD0B4420BD20C9ACB
:10343000551E3022202C02D171E0202C2DD00134D9
:103440002A55B442F9D1DA063CD55A052ED4002CBF
:1034500028D10F9A102A00D1B6E0022A00D1BCE090
:1034600030220C9C227001244A46002A65D15A075A
:1034700000D499E02B220C9D2A55013403930C9B18
:1034800062460093029643460194FFF74FFF04B053
:10349000E0BCBA46B146A846F0BD2024DA06EDD518
:1034A0005A0503D4A74266D0B44264D00F9A102ABA
:1034B00071D0022A57D0202CE0D0220001343025D0
:1034C0000C9FBD54202CD9D0CEE7012215001D4001
:1034D000AA461A4236D04A46002A4AD10C321A422B
:1034E00047D1BC42A1D2202C91D1202E17D8202424
:1034F000DA06C3D55A051BD4202F01D0202ED5D1F2
:103500001F220F9D102D6FD0022DD8D162250C9F48
:10351000BD54D0E75246002A79D0202EBDD92024B0
:10352000DA06ABD55A0503D4202FE9D0202EE7D0F8
:103530000F9A102AA2D12024A0E72D220C9D2A55F3
:1035400001349BE7BC4200D37DE7202C00D05EE72E
:10355000DA06F0D55A05EED4202F62D0202EEAD11B
:1035600034001F22CDE7202C00D187E72200013450
:10357000CCE7013EB5E7621E012CC2D10F9A102A9A
:1035800000D06AE79A063BD558220C9C2270283A54
:103590006270022468E79A060ED4202CCBD07822E1
:1035A0000C9D2A55013486E71A0700D466E72022CD
:1035B0000C9D2A55013461E7202CBCD058250C9A6B
:1035C00012191570013476E79A0608D558220C9C1A
:1035D000227030226270022446E76032F7E77822D8
:1035E000F5E7002A83D1B3E7A21E013C9D0603D470
:1035F00078250C9FBD5460E758250C9FBD545CE7AF
:1036000078220C9C2270483A627002242CE7DA0679
:1036100000D433E75A058BD4202F00D044E71F2273
:103620006FE73C001F226CE710B5002800D110BDE9
:1036300001F0B4FCFBE7C0460B0010B5002802D037
:1036400049681B68984710BDF0B557464E46454639
:10365000DE46E0B599B08246894690460893229AA4
:10366000239B10001900FFF708FC002800D0CDE0D4
:10367000229823990122D94B5242FFF7F9FB0028E7
:1036800000D0C3E0229823990122D54B5242FFF784
:10369000D9FB002800D0B9E022982399002200230A
:1036A000FFF7D0FB002800D0F1E1229E239F80236A
:1036B000269ADB001A400D92269A1A4201D106235F
:1036C00024938023269A1B011A403B0093460996B7
:1036D000334300D0B3E0002A00D0C2E1002300242D
:1036E0000A930B94002304250993259B0024AB42E5
:1036F00000D95C1B0223269A1A400C92269A134288
:1037000003D06B426B415B421C40099B002B07D0EE
:103710000A9A0B9B30003900FFF733FB06000F00BD
:103720002298239900220023FFF78CFB002803D066
:10373000802109067B181F00269AAA4B0096019744
:103740001340089E0493249B039402934246330043
:103750004946504600F0AAF90400002D67D0202009
:10376000269A4946024013005A4253415B42621C6A
:1037700018400A92330022004530D047099A6F1E44
:10378000D317D4185C40D30F9B46002501E0202DB1
:1037900013D008AA94461F23200063440A21013550
:1037A0005E19FFF7A9F83031317020000A21FFF7C8
:1037B000A3F826000400092EE9D805230693002368
:1037C00004930A3303935B46089E029310AB0A9A54
:1037D000009349463300504605970195FFF7FCFDDD
:1037E0000C9A0400002A22D04246851A259AAA4241
:1037F0001DD9B046574616002200434649462020B0
:103800000135B8470134AE42F6D810E0269B424657
:103810000493259B49460393249B50460293229B85
:10382000239C00930194089B00F040F904002000C1
:1038300019B0F0BCBB46B246A946A046F0BD6A4BE3
:1038400078009C46400D6044FFF728FB674A684BB0
:10385000FFF7B1FA674A684BFFF78EFA674A3B03F6
:103860001B0B1A4304000D0009981100644B002241
:10387000FFF77DFA634A644BFFF79DFA02000B00E5
:1038800020002900FFF778FAFFF720FB0990FFF7E7
:1038900005FB5E4A5E4B04000D00FFF78CFA002228
:1038A0005C4BFFF769FAFFF711FB5B4A5B4B2900A2
:1038B0000C902000FFF77FFA04000C980D00FFF732
:1038C000EDFA574A574BFFF776FA02000B0020003B
:1038D0002900FFF74CFA04000D0002000B000A94C7
:1038E0000B95FFF768FA04000D000A980B99020087
:1038F0000B00FFF741FA00220E900F914A4B200077
:103900002900FFF73EFA0022484BFFF735FA020084
:103910000B0020002900FFF734FA0022444BFFF788
:103920002BFA02000B0020002900FFF72AFA0A9A5E
:103930000B9B0D0080210400C9050020FFF717FA3A
:1039400002000B0020002900FFF716FA02000B000E
:103950000E980F99FFF715FA0022284BFFF70CFA83
:10396000344B0C9C9C46644423050022FFF723FA49
:1039700004000D0002000B00300039000A940B9582
:10398000FFF760FA00285DD123002A00C6250999B7
:1039900063318D42AD4159466D420435002900D155
:1039A000A3E6134363D030003900234A234BFFF7CB
:1039B00057FA002807D0002230003900204BFFF7CB
:1039C00041FA002853D1249B002B00D18DE60D9B9A
:1039D0005A1E9341249AD31A249386E6FFFFEF7F61
:1039E000FFFFEFFFFFF7FFFF01FCFFFFFB799F5099
:1039F0001344D33FB3C8608B288AC63F0000F03F12
:103A00000000F83F61436F63A787D23F71A3790934
:103A10004F930A400000E03F1655B5BBB16B024022
:103A2000EF39FAFE422EE63F00002C400000244011
:103A300000001840FF0300002D431CEBE2361A3F44
:103A400080842E41099B0022013B09932000164BE4
:103A50002900FFF796F90A00010003000A910B9272
:103A600094E7002300240A930B9400230993249ADB
:103A7000099B9A4214DDD31A013B24938023269A92
:103A8000DB001A4300230025269209932DE68022AD
:103A900012069446229B1E00239B63441F0006E6E9
:103AA00000232493EAE7C04600002440F0B54546D1
:103AB000DE464E465746E0B595B08B469046994651
:103AC0001E9A1F9B0A9019001000209DFFF7D5F940
:103AD000002800D0B0E11E981F990122C74B524226
:103AE000FFF7B0F9002800D037E11E981F99012296
:103AF000C34B5242FFF7BCF9002800D0A7E01E9844
:103B00001F990022BF4BFFF7B3F9002800D088E0CF
:103B10001E981F990022BC4BFFF794F9002800D093
:103B20007FE01E981F9900220023FFF78BF90028E1
:103B300000D0FAE000230B938023229C229ADB0022
:103B40001C401A4200D102E1092D00D87CE106A9EF
:103B50008C462C00172200233021093C624401339B
:103B6000D154EF1A202B00D132E1A342F7D1002229
:103B7000A44B069207931E981F99FFF7A7F905001B
:103B8000FFF78CF902000B001E981F99FFF7EFF862
:103B9000069A079BFFF70FF908900991FFF7BAF90A
:103BA0000600FFF777F902000B0008980999FFF764
:103BB000DEF80022954B08900991FFF759F900288B
:103BC00000D1D2E001363000FFF764F9069A079B76
:103BD000FFF746F9002801D000260135AA46002F3C
:103BE00000D098E02800FFF759F902000B001E985A
:103BF0001F99FFF7BCF8854B002206000F00FFF766
:103C000021F90CAB9A46002845D10022300039003A
:103C10007E4BFFF72DF900283DD1EB073BD5013551
:103C200039E0229B42460493219B594603930A980C
:103C30001E9B1F9C0295009301944B46FFF704FDC9
:103C400015B0F0BCBB46B246A946A046F0BD229BCB
:103C50005B0767D403226E4B22990192039121994D
:103C60000291009342464B4659460A98FFF75EFB85
:103C7000E6E706AA94461723280063440A21013484
:103C80001E19FEF711FE3031280031700A21FEF7AF
:103C90000BFE051E76D0202CEBD10323229A134075
:103CA000012B1DD1219B002B1AD00B9B002B00D088
:103CB000BBE0229A0C33134200D0B6E0219BA34212
:103CC00000D887E006AB9C4617223023624404E00C
:103CD0002199013413558C4259D0202CF8D120243D
:103CE000229B01940393219B02935346B9E706AAB2
:103CF000944617230A216344300001341D19FEF74E
:103D0000FBFD3031297030000A21013FFEF7F4FD40
:103D1000092E46D90600202CE9D155460CAB2024AB
:103D20009A46B8E704223B4B96E71E9A1F9B002059
:103D30000021FFF71CF801230B938023229C229A79
:103D4000DB001E901F911C401A4200D0FCE60022AE
:103D5000314B0627069207930DE7229B0393219B85
:103D60000293042301932D4B7BE7002208980999C5
:103D7000264BFFF767F8002800D02FE7002E4FD121
:103D800001362BE70323229A1340012B66D0202C07
:103D9000A6D00B9B002B1FD02D2352461355013468
:103DA0009EE75546202CB9D030233A19002F08D071
:103DB000172006A9013409180B55202CAED09442C7
:103DC000F6D10CAB9A462E2352461355013462E7C6
:103DD0002024CCE6202C83D0229B5B0708D4229B96
:103DE0001B0700D47CE7202352461355013477E7A4
:103DF0002B2352461355013472E7C046FFFFEFFFF5
:103E0000FFFFEF7F65CDCD4165CDCDC10000E03F27
:103E1000BC360510B436051080842E41C43605101A
:103E2000F30700D4DAE60136D8E6219B013B219363
:103E3000A34200D946E7AAE7229B0393219B029362
:103E400003230193074B0CE7074BEA009B185C68C0
:103E50001B682F000693079400248CE6219B002BFF
:103E600095D022E7C036051098520510F0B5574698
:103E7000DE464E464546E0B5A5B01F002E9B914656
:103E80000D93CA4ACA4B82468B461A60002900D15C
:103E900029E2002338789846002800D12BE2C54B50
:103EA00044460C93C44B55464E460E930AE0631CA1
:103EB0009846220033005946A847444638780028DF
:103EC00000D187E001372528F1D108239A46043B29
:103ED0009946023B9846013B00229C460B94387859
:103EE000791C0300203BDBB2102B03D80C9C9B00F9
:103EF000E3589F460300303B0B9C0B92092B3AD9A9
:103F0000002398462A2800D1DDE000239A462E2877
:103F10004BD00300683BDBB2122B1ED80E9A9B00DD
:103F2000D3589F4663460F001A43D8E743460F0015
:103F30001A43D4E74B460F001A43D0E710230F0073
:103F40001A43CCE753460F001A43C8E780235B00AF
:103F50000B9A78781A430B9201310F0067284FD8DB
:103F60002428A4D90300253BDBB2422B9FD89349D8
:103F70009B00CB589F46002398460B9B47469C4688
:103F800000E00131BB00DB195B001F180878303FEF
:103F90000300303B092BF4D963460B930023B8464A
:103FA0009A460F0001312E28B3D180200B9AC00011
:103FB00002430B9230225242944678780B0084449C
:103FC0006246092A00D8AAE12A2800D1B9E10F00E7
:103FD00001319EE7A046AA46B146C84503D3012356
:103FE0005B424B4498464B46424659460020D047D8
:103FF000200025B0F0BCBB46B246A946A046F0BDA5
:1040000001006939C9B20F2900D950E701238B405B
:104010009C466B4B994663464A4613400F93624653
:104020004B461A4200D068E10A2956D0072900D031
:104030003DE70D9B02CB9846002900D092E10B9BF7
:1040400010211A008A431000113108438146802054
:104050001A00C0000240110003421CD114AB9C4660
:104060001F220F2362440D959C4615000F9B0B9455
:1040700002E0202B0CD0110064460C4020003730A9
:10408000092C00D807380133E8540A090F29F0D861
:104090000B9C0D9D0F934B460822069353460592A9
:1040A00008320392002204930F9B029201931CABEF
:1040B00022000093594633002800FFF78DF943464C
:1040C00004000D93FAE60D9B04CB9046002A79DBA1
:1040D00078780D930F00013117E70D9B02CB1493F5
:1040E0000B789C4618005346002B00D134E1002881
:1040F00015D05346013B013399460D940B9C8944DE
:104100004A460B00A14601E0934203D05C7801339C
:10411000002CF9D14A465B1A0D9C0B920F93802319
:10412000DB0099460B9A13400D934B461A4204D07C
:104130000F9B534501D953460F93022399460B9A7F
:1041400013400B934B46134200D1F5E16346002B1D
:1041500000D1D6E10D9B002B00D182E10B1BD14693
:1041600031009A463B00A1442E005F464D46220096
:104170009B46894609E04B463900541CB0475346DC
:10418000185D002800D192E122009542F3D14B4600
:104190005A46A946BB46350017001E004C460B9BED
:1041A000002B00D0ADE1149B0D9387E66D3E00100F
:1041B000B0770020F85005103C51051088510510CB
:1041C000419000000B9A283802430B92424652421B
:1041D000787890460F000D93013196E678786C2838
:1041E00000D15DE180230B9A5B001A430B920131F1
:1041F000B3E680239B00ABE67878682800D148E1DD
:1042000080230B9A01311A430B92A6E6672800D14E
:10421000B2E0472800D11AE1452800D11CE10B9AF1
:104220000721049242460D9B0392073352468B436B
:10423000190002920CC92800009201930D912200EE
:1042400033005946FFF700FA040037E6462800D14C
:104250008DE00B9A0721049242460D9B039207338F
:1042600052468B43190002920CC928000092019318
:104270000D91220033005946FFF718FC04001DE69B
:10428000631C98462200330059462520A84744461F
:1042900014E60D9B04330F93631C99460B9B9A07FE
:1042A00000D40AE10D9B2200187859463300A84734
:1042B00043464444012B00D86FE1B0462E00250050
:1042C0004C46B9465F46220043460134390020205F
:1042D000B047AC42F7D12C00BB4635004F464646AE
:1042E0000F9B0D93EAE5D64B38789A460023984603
:1042F000002800D0D3E500246FE66F2842D000D814
:10430000FDE11023782800D19BE00B9A9A430B9291
:104310000A239C46002314930A330F9338E0574630
:104320000B9AB900C919490001330F181878303FAA
:10433000010030390929F4D9BA460B921F00591CE3
:10434000E7E50D9BB87804CB0237D143C9170A4083
:1043500092460D93791CDCE5002800D1DFE60223AC
:104360005B42C8E621200B9A0243914676E6202361
:104370000B9A1A430B926CE780230B9A1B011A438A
:104380000B924CE708239C460023149308330F93A9
:104390000B9880230200DB001A4011000200184233
:1043A00000D080E00C239A431000802302009B0081
:1043B0001A400B92184200D0F1E0802302005B000B
:1043C0001A4091460D9A04321492184200D0C3E26A
:1043D000430600D5D7E0030600D421E30D9B1B88DC
:1043E0000993002B00D02DE110339843002900D110
:1043F00028E10023994643460593534604930F9BB7
:1044000006900393002302934B4601931CAB2200BA
:104410000093594633002800FEF7DEFF0400C2E691
:10442000582809D0622800D0E3E202239C460023EA
:10443000149302330F93ABE720230B9A1A430B928A
:10444000103B9C460023149310330F93A0E7802366
:104450000B9A1B011A430B9220230B9A1A430B92BF
:10446000DDE60B1B9A460F9B99463B0037005E46E4
:104470009B4622003B003100A84753460134185D9B
:104480000028F6D14B460F935B46B3463E001F0013
:1044900085E6C0230B9AB8781A430B92F91C5CE5A9
:1044A000C0239B00F6E70D239A4310007DE75B468F
:1044B0003500BB464E461F0071E64346012B66D9C8
:1044C000631E434432002E001D003B00A2465F469F
:1044D00091469B4622004B46013439002020B047CC
:1044E000AC42F7D15B463500BB464E46A14654462A
:1044F0001F000D9B4A461878594633004444A8478C
:10450000EEE60F9BA146984500D84CE64444E41AD9
:10451000B0462E0025004C46B9465F462200434671
:10452000013439002020B047AC42F7D12C00BB4603
:1045300035004F46464636E60F98804500D873E270
:104540004346E218131A32002E001D003B0091462C
:104550005F469B460F9122004B46013439002020D4
:10456000B047AC42F7D15B46BB461F0043460F99AC
:1045700001330F930B7835009C464E466046002869
:1045800000D0E7E50FE60D9B1B78099329E70D9B0B
:104590002200187859463300A8474C46A0E60D9AE9
:1045A000FA3BFF3B07329A430133994691444B460D
:1045B0000D931368526815921A4306D11032904336
:1045C00000220992002900D083E06122810600D5F3
:1045D0004122D2B20A9214AA91460A9A00210A3ABA
:1045E0000B9242461792524618925A46B246099189
:1045F0001E001F31149B4944BB4616941A95002493
:10460000674698468946159D19901B920AE03032FC
:10461000D2B24B4601341A55A8454CD0202C4CD070
:1046200006000D003A00002330002900FEF7A2F931
:10463000D2B2092AEBD90B9B9C466244D2B2E8E77E
:10464000293300106123820600D54123DBB20A3BE7
:104650000B93434614A91F228C461593534662447C
:10466000B2460D9417974C468046A9461700099DFF
:104670000F9E169308E03033DBB201343B55B54250
:104680000ED3202C0CD0050031002800FEF734F9A1
:10469000CBB20929EFD90B9A94466344DBB2ECE71D
:1046A000159B40469846169B4D465646A1469A464F
:1046B0000D9C179F9FE6B742B0D9179B5646984668
:1046C000189B5F469A461B9B09949B46169C19981B
:1046D0001A9D43460593534604930F9B06900393FC
:1046E00000230293099B01931CAB220000935946BF
:1046F00033002800FEF770FE0400FFF7DFFB1023F5
:104700000B9A9A430F92692800D091E10B9980236C
:104710000A00DB001A4010000A00194203D01121E0
:1047200018008A430F920F9A802311009B001940B2
:104730008C461A425BD1802311005B0019408946E8
:104740000D9904310B911A4200D0B2E013005B06C0
:1047500000D4EDE00D9B1B781A00D90F0D91002BB2
:1047600000D1A3E0100014AA944642461F231592DC
:1047700052466344A846BA464D461494B1460400D6
:104780001F00169201E0202D0FD020000A21FEF715
:10479000B3F801357E193031317020000A21FEF75F
:1047A000ABF826000400092EEDD8159B4E46A9460D
:1047B00045469846169B57469A46149C0F9B06936F
:1047C00043460593534604930A2303930D9B029398
:1047D0004B4601931CAB220000935946330028003E
:1047E000FEF7FAFD0B9B04000D93FFF767FB072212
:1047F0000D9B07339343013294469C4462460D92CD
:104800000CCBD90F0B911100194300D19BE0D917A4
:104810001391129151401091139959401191109890
:104820001199129A139B801A99411090119114AA10
:1048300094464246002315925246994616923200FB
:104840001F336344A8464E46BA4614941F00109C7A
:10485000119D914601E0202E10D0200029000A224F
:104860000023FEF787F8013630322B00BA550D00D1
:1048700022000400002BEED1092AECD8159B1094DD
:104880001195454698464B46169AB14657461E0026
:104890009246149C0F9B06934346059353460493FC
:1048A0000A2303930B9B02934B461CE7002885D1F8
:1048B00059E70D9B1B68DA0F1100002B00D1A6E011
:1048C000DA179818504014AA91461F2342464B44C9
:1048D000A8460D94169704006546B1461F00149132
:1048E000159201E0202D0FD020000A21FEF704F8D8
:1048F00001357E193031317020000A21FDF7FCFFAF
:1049000026000400092EEDD8159BAC464546984676
:10491000149B4E4619000D9C169F0F9B0291069307
:1049200043460593534604930A230393634650E793
:1049300013001B066ED50D9B00229B5ED9175A18DB
:104940004A4092B209E7002399460028A2D10022EA
:104950000023109211936AE70D9B1B689946002B68
:1049600003D110339843002938D16123820600D542
:104970004123DBB20A3B0D9343461693534614A9D9
:104980001F228C4617932B0062444D46B246159465
:1049900018978046170099460B9C0F9E08E030330D
:1049A000DBB201343B55B5420ED3202C0CD00500B0
:1049B00031002800FDF7A0FFCBB20929EFD90D9AED
:1049C00094466344DBB2ECE7169B40469846179B3F
:1049D00056464D469A460B94189F159C43460593A0
:1049E000534604930F9B06900393002302930B9B63
:1049F0000BE50B9980230A00DB001A4010000A0027
:104A0000194200D08BE610239A430F928BE60028C0
:104A100083D158E70D9B1B68D9175A184A409CE66A
:104A20000D9B1B680993DCE4030001330F93A5E59C
:104A30000B926DE40EB4012230B584B007AC08CC03
:104A4000064D01000094280052420394FFF70EFA2D
:104A500004B030BC08BC03B01847C0462133001076
:104A60000CB430B585B008AC08CC064D0A000094F3
:104A7000010028000394FFF7F9F905B030BC08BC29
:104A800002B018472133001010B5054C82B00093D6
:104A900013000A0001002000FFF7E8F902B010BD82
:104AA0002133001000B585B00391012102900093DD
:104AB000034813004A4202A9FFF7D8F905B000BD28
:104AC000393600100FB430B50C4985B008AA08CAB1
:104AD0000D680392002D0CD000920122084C524226
:104AE000200002A9A847012005B030BC08BC04B0D2
:104AF0001847180000F09EFA0020F5E7B077002074
:104B00002936001010B5094A0300146884B0002C3F
:104B100008D0012200910648524203A9A047012073
:104B200004B010BD00F086FA0020F9E7B07700204D
:104B30002936001000BEFDE77047C046094A030051
:104B40001068002805D00849C3188B4207D81360A5
:104B5000704706480449C31810608B42F7D90120FA
:104B60004042F5E7A873002000000420D87F012010
:104B700010B5041E0DD0FDF7ADFA074B1A685B683F
:104B8000801A99410023054AFDF7DCFE2060616030
:104B9000A260002010BDC0465856002040420F00C1
:104BA00000207047012040427047C046030010B506
:104BB00008001100002B05D1044B1A685B6800F057
:104BC0008FF910BD01204042FBE7C0469050051010
:104BD0000300013B10B508001400012B06D8012387
:104BE0000022210000F0FCF8200010BD012040420E
:104BF000FBE7C046012040427047C04601204042CA
:104C00007047C046012040427047C0460300022260
:104C100000209A424041704710B5FFF78BFFC04615
:104C200030B50D0083B01900002A0BD0074B084C9B
:104C30000192009302002B002000FFF743FF0120A8
:104C4000FFF778FF034B1A00F1E7C046CC3605109A
:104C5000DC3605104C42051070B50A48FDF7D6FD4C
:104C6000FDF7A4FC084D094EB54209D20024013ECF
:104C7000761BB60808CD984723000134B342F9D11A
:104C800070BDC04600100420602F05108C2F051049
:104C900070B504000126022584B02368BFF35B8F42
:104CA0001E4209D12A001A401D4207D020BF2368A6
:104CB000BFF35B8F1E42F5D000200AE00392009202
:104CC00003230222200003A9FEF7F2FA0028E4D011
:104CD000012004B070BDC0460123BFF35B8F0360A9
:104CE00040BF7047030010B5080011001B689847CB
:104CF00010BDC046F0B5C64600B5437D07000D00A7
:104D00001600002B38D0002A2EDD00216A1E9046A6
:104D10006A5C037D4C1C00200A2A0CD0A64216D0E7
:104D200043461B5D21000D3B5A4253416A5CDBB296
:104D30004C1C0A2AF2D1002BF0D1884217DB022149
:104D400010483B689847A64207D02000E8E7864213
:104D500003DD311A3B6828189847AD19013D2B78BF
:104D60000D3B5A4253413B7580BCB846F0BD091A11
:104D70003B6828189847E2E7036811002800984725
:104D8000F2E7C046E8520510F8B50B680D005A1C52
:104D9000CB180A601871802A00D0F8BD0E4B1C6831
:104DA000002C15D00D4E0F1D02E02469002C0FD0F1
:104DB0002368002BF9D03368002B01D0A342F4D133
:104DC000200039002A68FFF795FF2469002CEFD1F5
:104DD00000232B60E1E7C0469C730020A4730020F1
:104DE000F0B5DE4657464E464546E0B585B017005D
:104DF0001C0006000D00FDF76DF90023314A121862
:104E00004B41802109068B4202D301222E4B524294
:104E10002E4908008A464DF0EBFF01906B1C03D130
:104E2000300047F0B1F90500002C26D0284B9846F9
:104E3000284B1C68002C15D0002F21D1264F02E0F2
:104E40002469002C0ED02368002BF9D03B68002B7E
:104E500001D09C42F4D120002A003100C0472469CF
:104E6000002CF0D1019B002B28D1280005B0F0BC0C
:104E7000BB46B246A946A046F0BD184B9846D7E7B8
:104E8000154B994602ABDF1D0A239B4602E02469BD
:104E9000002CE7D02368002BF9D04B461B68002B71
:104EA00001D0A342F3D12A0031002000C0475B4665
:104EB0000122390020003B70C047E8E750464DF022
:104EC000C7FFD2E740420F00FFFFFF7FA04F002047
:104ED000F54C00109C730020A4730020E54C0010DA
:104EE000F8B557464E464546DE4698461A4BE0B55D
:104EF0009B461A4B07000E0091469A46184D5B469A
:104F00001C68002C03D115E02469002C12D02B68FA
:104F1000002B01D0A342F7D1A368002BF4D03100BD
:104F2000380098470028EFDDF0BCBB46B246A946E2
:104F3000A046F8BD53465B6A984508D85246926A27
:104F40004A4502D302204042EEE79845FAD10120BB
:104F50000021FDF7C9F8D2E79C730020004005400E
:104F6000A47300200A4A1368002B05D10CE01A0034
:104F70001B691032002B07D09842F8D1002902D1CA
:104F800003691360016170470029FCD01060FAE7E3
:104F90009C73002010B500F07DFA10BDF0B5CE4630
:104FA000474680B583B06B460600DD1D2870FDF7CF
:104FB00091F800231A4A12184B41802109068B42AE
:104FC00002D30122174B52421749080088464DF080
:104FD0000FFF164B81461C68002C14D0144F02E0C2
:104FE0002469002C0FD02368002BF9D03B68002BDC
:104FF00001D09C42F4D1200001222900FFF77AFE63
:105000002469002CEFD14B46002B05D1300003B0B2
:10501000C0BCB946B046F0BD40464DF019FFF5E7BB
:1050200040420F00FFFFFF7FA04F00209C73002035
:10503000A473002070B5040047F0A6F80123010016
:10504000050001222000FFF7CBFE084B1C68002C56
:1050500006D06368002B05D098472469002CF8D14E
:10506000280070BD2469002CF3D1F9E79C7300205F
:10507000F0B5CE46474680B5A3B004000D00FDF75D
:1050800029F80023294A12184B41802109068B4236
:1050900002D30122264B5242264F38004DF0A8FE83
:1050A00000230600019322002B00234801A9FFF7EB
:1050B000F9FC019B8046002B14D1204B1C68002C6E
:1050C00006D06368002B0BD098472469002CF8D1D8
:1050D000002E25D1404623B0C0BCB946B046F0BD35
:1050E0002469ECE7154B1D689946002D1CD0144C23
:1050F00002E02D69002D0FD02B68002BF9D023681A
:10510000002B01D0AB42F4D12800019A02A9FFF78D
:10511000F1FD2D69002DEFD14B4601951C68CEE7BE
:1051200038004DF095FED5E70195D1E740420F00DC
:10513000FFFFFF7FA04F0020894D00109C730020CF
:10514000A47300200FB400B583B004A901C9019174
:10515000FFF78EFF03B008BC04B01847024B18607D
:10516000024B19607047C04634730020387300202A
:1051700010B5024B1878FCF773F910BDD37F0120EE
:10518000154B70B51A68002A22D0EFF3108172B661
:1051900010680028FCD0BFF35F8F00200F4A5960D1
:1051A00010701B68BFF35F8F186081F310880024B4
:1051B00000250B4E3078FCF747F9002804D1002475
:1051C00000252900200070BD3078FCF749F9F8E788
:1051D000FA240025A400ECE7C4770020D47F012046
:1051E000D37F012070B5040000200E0001F078FB91
:1051F000002836D0002001F089FB002831D0FCF7D0
:1052000069FF0023184A12184B41802109068B427E
:1052100016D2164D28004DF0EBFD002821D00020BD
:1052200001F05EFB00280FD101200021404200F078
:105230007FFD0324644228004DF00AFE200070BD6B
:1052400001220B4B5242E4E7002001F05FFB0028F3
:10525000EAD021003200002001F062FB041EEAD1F6
:10526000E7E703246442E9E740420F00A07F012002
:10527000FFFFFF7F10B5FCF72DFF00230E4A121829
:105280004B41802109068B4202D301220B4B524233
:105290000B4C20004DF0ACFD00280CD0012000216B
:1052A000404200F045FD002001F084FB0028F5D1CC
:1052B00020004DF0CDFD10BD40420F00FFFFFF7FED
:1052C000A07F0120F8B5DE46574680B505000C00EA
:1052D000FCF700FF0023374A12184B4180210906D2
:1052E0008B4202D30122344B5242344908008A4691
:1052F0004DF07EFD002803D1C0BCBB46B246F8BDD0
:10530000002001F0EDFA00284AD00026002C43DDF1
:105310002B4B9B4614E0A919002001F085FB0700E8
:1053200001200021404200F003FD002001F042FB7B
:10533000FCF7D0FE224BF61918605960B4422BDD01
:10534000002001F091FBA71B0200B84200DD3A00EB
:10535000002AE0D101200021404200F0E9FC0020B9
:1053600001F028FB002001F0BBFA002814D0002037
:1053700001F07AFB0028E1D1FCF7ACFE5B460F00A0
:105380001A685B68002184460E4812184B419F4200
:1053900002D8D3D19445D1D950464DF059FDABE751
:1053A00000200021064B1860596050464DF050FD1A
:1053B000A2E7C04640420F00FFFFFF7FA07F012011
:1053C0006856002020A1070030B52B4C85B0002185
:1053D00020004DF085FD00281CD1284B1A68002ABA
:1053E00016D0EFF3108172B610680028FCD0BFF31E
:1053F0005F8F01242248596002781B68D2B2047082
:10540000BFF35F8F0020186081F31088002A17D047
:1054100005B030BD01200021404200F089FC002091
:1054200001F074FA050020004DF012FD002DEFD0C0
:10543000144B1B68002BEBD0134A10689847E7E722
:10544000FCF720FC0400FCF745FEFA220023920042
:1054500012184B41802109068B4202D301220B4BCB
:10546000524201210291002101910949200000913D
:10547000FCF70CFCCCE7C046A07F0120C4770020DD
:10548000D47F01203473002038730020FFFFFF7F9A
:1054900081510010D02310B51B0684B01C68FCF7A6
:1054A000F1FBFCF7EFFCA04202D0002004B010BDDD
:1054B0002A4B002100201B7801F0A0FC284803683B
:1054C000002B47D00120FCF76DF9FF23254C26491E
:1054D00020701840FBF7DEFF20780121FBF7A2FFC8
:1054E0000520FBF7C5FF002826D1082200211F4810
:1054F000FDF7D2FEFCF7C6FB0400FCF7EBFDFA2239
:105500000023920012184B41802109068B4202D3DE
:105510000122174B524201210291002101911549AC
:1055200020000091FCF7B2FB0028BEDB12480121ED
:10553000FFF718FD0120B9E70120FBF741FF0B4BF6
:1055400001001800FCF790F9002205200B49FBF739
:10555000CBFFEBE7FCF76CF9B4E7C046401106104F
:10556000A07F0120D37F0120C9530010C477002001
:10557000FFFFFF7F81510010604700207151001034
:1055800000487047645305100048704710530510D9
:1055900010B5040017480378002B20D0002C06D14A
:1055A000154B16484380063BFF3B038010BD052C7E
:1055B00019D8134BA400E05812490123013804E024
:1055C00001330A800231142B0FD0C25C002AF7D1BC
:1055D000C022DBB25B00920008481343E5E71121CB
:1055E00000F01AF8DAE70020E0E7CA2303489B003E
:1055F000DBE7C046B47F012009040000747300207B
:10560000F85205107673002010B5024800F0D8F863
:1056100010BDC046E077002030B54B1E012900D1F7
:10562000A7E0664A11780D092C0030349F2900D973
:10563000A2E00470012B00D1BEE00F2114782140BC
:105640000C003034092900D998E04470022B00D1B5
:10565000B2E054782509290030319F2C00D990E020
:105660008170032B00D1A7E00F2121400C003034C2
:10567000092900D987E0C470042B00D19CE09478FC
:105680002509290030319F2C00D97FE00171052BBD
:1056900000D191E00F2121400C003034092900D9BC
:1056A00076E04471062B00D186E0D47825092900E4
:1056B00030319F2C00D96EE08171072B00D17BE047
:1056C0000F2121400C003034092966D8C471082B01
:1056D00000D171E014792509290030319F2C5FD861
:1056E0000172092B68D00F2121400C0030340929A8
:1056F00058D844720A2B5FD05479250929003031DB
:105700009F2C52D881720B2B56D00F2121400C00B8
:10571000303409294BD8C4720C2B4DD0947925090B
:10572000290030319F2C00D9073101730D2B43D054
:105730000F2121400C003034092901D937310C00E8
:1057400044730E2B38D0D1790C09220030329F29B6
:1057500000D9073282730F2B2ED00F220A4011007E
:105760003731092A01D830321100C173102B23D0F0
:1057700010300023037030BD07345AE737310C0076
:1057800063E707316CE737310C0074E707317DE7D9
:1057900037310C0085E707318EE737310C0095E78C
:1057A00007319DE737310C00A3E70731AAE737310E
:1057B0000C00C4720C2BB1D1C018DAE7E0770020DE
:1057C00010B588B004000D2200216846FDF764FD85
:1057D0000D22002104A8FDF75FFD6A464B236846B1
:1057E000137004A900230D224DF0FAFA15210822A6
:1057F00020006944FDF756FD08B010BD7047C04653
:105800000022014B1A707047D27F01204B79002093
:10581000FF2B0BD18B79002B08D1CB79012B05D134
:10582000082A03D9024B8A7809301A707047C0469B
:10583000D27F01200120704710B5012901D001203D
:1058400010BD14495379107909781B0203430020D5
:105850009942F5D15378012B08D0022BF0D10020CA
:1058600064220021FCF7EAFD0120E9E7D178907875
:105870000902014380200A0040000240014206D094
:10588000CA091A40480A03231940FCF75FFE0120A9
:105890004042F8E7D27F01200048704720540510AD
:1058A00070B5050014000120012909D153780020AA
:1058B000012B05D1637912791B021343072B00D00A
:1058C00070BD21002800024A9F3300F0E9FEF7E78F
:1058D00078530510012303700048704744540510A5
:1058E0004B780A781B0213438A7810B512041A43C6
:1058F000CB781B0613439622D200934200D010BDF2
:105900000022012011004042FCF720FEF8B500F013
:1059100035F90C23194DFF22AB6705201849FBF719
:10592000E3FD184C402200212000FDF7B5FC402784
:10593000002301262121144A66702783A260136088
:1059400063545F31618445396354104A1049636080
:10595000E2602787A1620B606362E2624DF0B8FAF1
:1059600080239B052E64EB6490230A4A0120EA50B1
:105970008022094B5202DA64F8BDC0460000115083
:1059800061050020AC73002084001050000110500D
:105990008000105010D001000020115010B50121DE
:1059A0000520FBF73FFD10BD10B500220021024885
:1059B00000F004F910BDC046CC730020044B1970F0
:1059C000002904D080219023024A8902D1507047D7
:1059D000CC7F0120002011500B785B0602D14B7860
:1059E000052B00D070478A78014B1A60FAE7C04651
:1059F00000001150F0B5C646CB7800B59B079C0F50
:105A00002000012C56D08D780A794B797F211B021A
:105A10002940EE0913434A0094462C4F9219520133
:105A2000BA18957001257540557000255B055B0D12
:105A3000D5701383D476CA00012E2BD0244CA046F7
:105A40008C0142443C19A260156000292BD0214AE8
:105A5000C9009046414461603F223F33934302288E
:105A600030D032001C4C624421685201BF181B4ADE
:105A7000CB18F9602360934226D8194A83064A401E
:105A800013438022120613437A681360012080BCFE
:105A9000B846F0BD134CA0468C0142443C19A262AA
:105AA0001560002908D100237601BE1973600E4BE2
:105AB000F360EBE70020EAE7094AC9009046414459
:105AC0006162C9E75B00CCE7FCF76AFDAC730020BC
:105AD0008400105004001050C0770020FF0F1050B9
