:020000041000EA
:1000000000B5324B212058609868022188439860DF
:10001000D860186158612E4B002199600221596106
:100020000121F02299502B49196001219960352056
:1000300000F044F80222904214D00621196600F024
:1000400034F8196E01211966002018661A6600F04E
:100050002CF8196E196E196E052000F02FF8012189
:100060000842F9D1002199601B49196000215960AB
:100070001A491B48016001219960EB211966A021F2
:10008000196600F012F800219960164914480160C1
:100090000121996001BC002800D000471248134993
:1000A000086003C880F30888084703B5996A0420EC
:1000B0000142FBD001200142F8D103BD02B5186610
:1000C0001866FFF7F2FF186E186E02BD00000240BE
:1000D000000000180000070000035F00212200005C
:1000E000F4000018222000A00001001008ED00E03C
:1000F00000000000000000000000000074B24E7A12
:1001000000200420F7010010CB0100105D3D01101C
:10011000C9010010C9010010C9010010C901001077
:10012000C9010010C9010010C9010010CF01001061
:10013000C9010010C9010010D1010010D301001045
:10014000C1010010C1010010C1010010C101001067
:10015000C1010010C1010010C1010010C101001057
:10016000C1010010C1010010C1010010C101001047
:10017000C1010010C1010010C1010010C101001037
:10018000C1010010C1010010C1010010C101001027
:10019000C1010010C1010010C1010010C101001017
:1001A000C1010010C1010010C1010010C101001007
:1001B000C1010010C1010010C1010010C1010010F7
:1001C000EFF30580103800BE00BE00BE00BE00BECA
:1001D00000BE00BEF2EB88718CF40110B0F4011087
:1001E0003802001090A31AE700201E49086006C8D4
:1001F00081F3088810471C480068002801D00020BF
:10020000F3E70DA40ECC002902D000F012F8F9E7B4
:100210001649174A002000E001C19142FCD115495E
:100220008847154988471549884700BEFDE701C939
:1002300001C29A42FBD37047B0F401104001002084
:10024000E43E00205432021000000420000004208C
:10025000543202100010042000100420000000009E
:100260007047000008ED00E0000000D0E43E0020F0
:1002700010570120C15800109D060010B9580010F9
:1002800001207047002801D1014870470020FCE799
:10029000C018002070B504000D0013F075FE230097
:1002A00002002900034805F057FD034808F01EF836
:1002B000FEE7C04610B3011078563412F0B5DE46A2
:1002C00057464E464546FA20E0B5D94CC000A544F5
:1002D00002F0D0FB0FF0F0F9002800D14CE1002033
:1002E000FFF7D0FF002800D179E10FF0D9F9D14B09
:1002F000011E9A46186000D147E1CF4D0122280027
:100300000CF074FA040013F03FFECC4B0100220005
:10031000180005F021FD0D2C00D13AE1002C00D091
:1003200050E1C74BA1460893C64BC74E9B460CAD48
:1003300007F0E6FFC54B9842FAD1280003F076F8A3
:10034000002800D18DE0072169560022AB5E0491A0
:1003500006216956BE4A0391052169560EA80291ED
:10036000032169560191022169560091202105F06F
:100370000FFA089A0EAB402116A805F009FA534669
:1003800048221C6804AB9B181B782F2B70D016AF2B
:10039000002C07D0200018F0DFFA2018013803786D
:1003A0002F2B52D0AB4A802123004900009726A86A
:1003B00005F0EEF90A2226A9A6A80CF0FBFA804661
:1003C000002800D008E158461AF06EFF7768002F29
:1003D0003DD0A14B32689A4239D104ABC7209C462C
:1003E000400030220021604403F03CFE9B4B66AC91
:1003F00066930323A3803333A3720E3BA373F033BE
:100400006382283BA375EF3BA376173323779C23A6
:100410005B01032263842423E254434636220B9378
:1004200021000BABA6A80CF00DFF002825D10B9BDB
:10043000362B24D0012758461AF0D6FEA6A80DF078
:10044000E1F938008649FFF725FF864AABE75846B1
:100450001AF0CAFEA6A80DF0D5F9002015F02AFF63
:1004600066E74B462021804A0EA805F091F980E707
:1004700004AB49279C4667448AE70700DBE7D220A4
:10048000800003F0B9FD031E079000D1CEE0774A4B
:100490000992D2229200944663449846330046461D
:1004A0009846099B079AF9180B7801315842434145
:1004B0005B42DBB213705370937003329642F3D1F8
:1004C0000023D2220B9307990BAB9200A6A80CF045
:1004D000B9FE00284BD1D2220B9B9200934252D1FD
:1004E000099B193BFF3B1A000993614B9A42D8D1F3
:1004F000079803F09FFDA6A846460DF01FF80028B8
:1005000000D088E0A6A80DF07DF900287BD15846E0
:100510001AF06AFE53460EA91B68009180214D4ACD
:100520004900200005F034F932687168200000F0BD
:1005300085FF32687168200000F04CFE8C22F023A9
:1005400071685200200001F021FA8C22F0237168BA
:100550005200200001F026FB002015F0ABFE012325
:100560009C46E1444B46C82B00D0E1E6FEE707007D
:10057000079803F05FFD5EE73E4805F065FB3E48E7
:1005800005F062FBFEE70127F2E73C4805F05CFB63
:10059000F5E7092366A90B80002350464B608B606A
:1005A000CB608023A6AA5B0100680DF067F9040008
:1005B00013F0EAFC324B01002200180005F0CCFBDE
:1005C000002C10D0200013F0DFFC2E4B0100220085
:1005D000180005F0C1FBD2E72B49FFF75BFE2B4863
:1005E00005F032FBCBE753460122196828000CF0D6
:1005F000FDF8040013F0C8FC254B01002200180090
:1006000005F0AAFB8AE6070058461AF0EDFD38000F
:100610002049FFF73FFE070058461AF0E5FDA6A85F
:100620000DF0F0F838001C49FFF734FE112702E7FF
:1006300064EDFFFF90460020E83E002090B30110DB
:1006400030B40110F44E0020E056012001EFCDAB94
:1006500008B4011044B4011080060100424DB613E5
:1006600060B401103CB4011024B40110680501000D
:10067000E8FEFFFF24B30110F0B301106CB30110CA
:10068000A4B30110D8B301104CB401103CB3011055
:10069000B8B301107CB4011074B4011070B516F039
:1006A0003FFC02F0A7FEFA20800002F0E3F92A4C9A
:1006B000D025200001F0B2FEFA210620890014F0B6
:1006C0000DF822000620254916F00CF915F0F8FD6A
:1006D00015F06AFE224807F097FE002601242D0639
:1006E0002B6D1C420ED007F00BFE1E4B984220D003
:1006F0001D4B9842F4D11D4805F0A6FA1C4805F0A0
:10070000A3FAFEE715F0D0FD002823D1002E01D07A
:1007100016F006F9FA20800013F0ECFE15F0EEFE5C
:100720002B6D1C4212D007F0EBFD0E4B00269842B9
:10073000DED1104805F088FA0F4805F085FA07F079
:10074000EDFD0E4805F080FA002070BD15F0ACFDFF
:100750000028DFD00126C3E7F44E0020E056012038
:10076000BD020010AFBEADDE78563412C8B4011021
:10077000F0B4011084B40110A4B40110B8B4011095
:10078000434258414042C0B27047C04610B503F0E2
:10079000B6FAF021890503F05CFAFE21890503F021
:1007A0003EFA10BDF8B5CE4647468B1E150080B503
:1007B000061C0E2B39D80120013988404742441EBF
:1007C00003F0A2FA1C498046301C03F079FA002895
:1007D0001CD0194B9946002D06D04946301C03F019
:1007E00067FA4342584128604946404603F031FACF
:1007F0001AF04AFD030020009C4200DD1800B842B8
:1008000000DA3800C0BCB946B046F8BD200003F09D
:100810007BFA414603F009FA8146011C301C03F0C3
:100820005DFA0028D7D1B146D5E7002A01D00023D0
:1008300013600020E6E7C046000080BF8B1E70B545
:100840000C000E2B0CD803F05FFA051C0120013CB4
:10085000A04003F059FA011C281C03F0E6F970BD12
:100860000020FCE7F0B557464E464546DE46E0B56B
:100870000C00060015001F008BB0002B00D1A1E07A
:1008800010220021181D03F0EDFB3D60002E00D169
:1008900094E0002C00D191E0AB1E0E2B00D98DE02E
:1008A0000120013DA84043420593431E994603F0B1
:1008B0002BFA8046484603F027FA414603F0B5F983
:1008C0003319069300239A46002300229B460023F7
:1008D000099755464F460092019302920393079061
:1008E000089453E0079C4846211C03F0F7F9A24600
:1008F000002800D1CA465146404603F0AAF91AF032
:10090000C3FC030038009F4200DD1800059B98429D
:1009100000DA180003F0F8F9414603F086F9011CEB
:10092000484603F07CF95146041C484603F0C0F9E0
:10093000434258412D18484603F042FA02000B008A
:1009400003F025F802000B000298039903F000F869
:1009500002900391201C03F033FA02000B0003F015
:1009600016F802000B000098019902F0F1FF6400F4
:100970006408009001915946201C03F0AFF900284B
:1009800000D0A346069B0136B34222D030784342C2
:1009900058414042C0B203F0B2F9F021890503F09A
:1009A00058F9FE21890503F03AF92249814603F0FE
:1009B00087F9002896D01F4B9A469CE71E4BBB60D8
:1009C000FB603B610BB0F0BCBB46B246A946A046FB
:1009D000F0BD099F089C7D60200003F03FF8009C5B
:1009E000019D02000B002000290002F0B6FF03F079
:1009F00085F803F07BF85B463861FB60002200233A
:100A00002000290003F002F8002803D0FF20C005D1
:100A1000B860D7E7009A019B0298039902F09DFF06
:100A200003F064F803F036FA044903F012F9B860F1
:100A3000C8E7C046000080BF0000C07F0000204122
:100A40000F23034009010B43D8B27047F0B5574656
:100A5000DE464646C0B504008A46170086B0002A26
:100A600000D19CE020220021380003F0FBFA002C8A
:100A700000D194E05346002B00D190E00026E2180C
:100A800023780134591E8B41F6189442F8D153460D
:100A900030009B1B9B4602F0E1FF04000D0058460E
:100AA0000094019502F0DAFF00225C4B0290039162
:100AB00002F06DFF22002B0002F045FF04005046BB
:100AC0000D0002F0CBFF02000B002000290002F015
:100AD00044FF03F00BF88046002E66D003F070F957
:100AE00002000B0000204E490492059302F02BFFF8
:100AF00004000D0002000B000098019902F047FF6E
:100B000022002B0002F043FF0023002202F020FF0E
:100B10005B4604000D00002B00D172E0414B3B60AE
:100B2000414B7B604346BB605346012B00D170E0D4
:100B3000049A059B0020394902F005FF02000B00D2
:100B4000009001910298039902F021FF009A019B05
:100B500002F01DFF02000B002000290002F0F8FE49
:100B600004000D005346581E02F078FF0B000200EF
:100B70002900200002F0F1FE02F0B8FFB86103F096
:100B800025F95346F8615B08B34245D35B4531D341
:100B9000264BFB60B3452FD8224B7E613B6106B0EC
:100BA000E0BCBB46B246A846F0BD1F4BB8603B60F8
:100BB0007B605346012B1AD003F002F902000B00B0
:100BC0000020164902F0BFFE04000D0002000B00D9
:100BD0000298039902F0DBFE22002B0002F0D7FE00
:100BE0000022002302F0B4FE04000D00BAE7002347
:100BF000BB61FB610C4BFB600B4B3B615B467B615C
:100C0000CDE7084B3B607B604346BB605346012BFE
:100C1000A8D10023BB61FB61024BBAE700C0EF3FE4
:100C20000000F0BF000080BF00007E3F000080BBDE
:100C3000F8B5DE4657464E464546E0B500286DD02D
:100C400000296BDD002A69DD002B67DD0A9C002C82
:100C500064DD4C1E9C4261DD0A9C013AA2425DDDCE
:100C60002200013A4A435C1E8518AC4652182D5D9D
:100C700051180419675C6E4275417E4277415E1CD3
:100C8000B1466D42EDB26D426646AB464D46765D6D
:100C9000411835006E426E417642F5B2A8464D4687
:100CA0004E5DA45C35006E426E41250080184A46B8
:100CB0006C426C41805C5D464242504162466442F7
:100CC000E4B27F426400FFB22C1B4042D25CE41BC2
:100CD000C0B244444000201854426241CB5C4446B8
:100CE00059424B415242D2B25200AA1A5B42121BE5
:100CF000DBB2D21976425B00D318F6B280199B1989
:100D00005B434043C01802F0FFFF03F05FF803F0BD
:100D10001DF8FF2809DDFF20C0B200E00020F0BC74
:100D2000BB46B246A946A046F8BDC343DB171840F0
:100D3000C0B2F4E7F0B5DE4657464E464546E0B54C
:100D4000CA4CA544002800D18AE10AADAC46C84C83
:100D500064442468002C00D182E1C64C64442468B9
:100D6000002C00D17CE1FF2900DC79E1002A00DCC5
:100D700076E1002B00DA5310934200DB73E10AAAFC
:100D80009446160015005943B94B441863441F6834
:100D900020780134434258414042C0B202F0AFFFD4
:100DA000F021890502F055FFFE21890502F037FF89
:100DB000FFAB01C52C3301C7AB42E9D10A98AE495C
:100DC00002F047FF01250A900BAC280002F09CFFBF
:100DD000AA4902F03EFFAA4902F027FF02F0FCFFF9
:100DE000A84902F036FF011CA74802F018FF011CB9
:100DF000206802F02EFFFFAB01C42C330135A34263
:100E0000E3D11D000AAAC023944600202A001B013A
:100E1000634402CE5060116008329A42F9D1022137
:100E2000002201208946AB46FFAC2C344D465108C8
:100E300057002F40014039439708490007400F43AE
:100E4000D1087F00014039431709490007400F438B
:100E500051097F00014039439709490007400F437A
:100E60007F00D1093943914211D965682768AA46A4
:100E7000FFAD2C35A846C9008844BC46250047462E
:100E800042CF42C5654641460D6055464D60083427
:100E900001329C42CAD15D4601267C4B7C4C0393B7
:100EA00009950123C021B3400906201C9A4602F08F
:100EB000D0FE211C02F0CDFE0823B340002298464C
:100EC0005346934652465B10DB00994605925A46BC
:100ED00004924A4606924246FFAB2C3302904B44A2
:100EE00008960792FE241E000027069AA4059D1A64
:100EF00001933368211C9A4673685046984602F065
:100F0000A8FE391C8146404602F0A3FE011C48465B
:100F100002F085FE211C8146404602F09AFE391CF3
:100F20008046504602F095FE011C404602F07AFED3
:100F30002B6880469B466B68494658469A4602F0A5
:100F40006EFE41463060504602F069FE59467060C0
:100F5000484602F067FE51462860404602F062FEB5
:100F6000029B6860211C181C9B4602F072FE039BCA
:100F70008046191C381C9A4602F06BFE011C404644
:100F800002F04DFE011C201C02F04CFEA146391C53
:100F9000041C584602F05DFE51468046484602F069
:100FA00058FE011C404602F03DFE011C381C02F0B8
:100FB00039FE019B0835071C0836AB4299D10599CB
:100FC000049A8C46079962448C4604926344FF2A33
:100FD00088DD089E0136092E15D00120B040401052
:100FE00002F092FE011C2B4802F01FFEFC21890535
:100FF000071C02F02EFE02F001FF041C381C02F058
:10100000FDFE03904DE70AAA94461A4BFFAF6344D6
:101010001E688123DB009C462C37099D67442868A5
:101020006B68011C984602F014FE4146041C4046C1
:1010300002F00FFE011C201C02F0F4FD02F0C6FEBF
:10104000154902F006FE083501C6AF42E7D100207F
:10105000084B9D44F0BCBB46B246A946A046F0BD35
:1010600001204042F4E702204042F1E7D4F3FFFFC1
:10107000280C00002C0C00000CD7A33DDB0FC9404E
:1010800000007F431F85EB3E713D0A3F2EBDBB3301
:10109000000080BFDB0F49C07B096D3CF0B54546C1
:1010A000DE4657464E46E0B5494C9046A544019170
:1010B0000A22010044A81D000BF07CFC041E37D15D
:1010C0004346002B00D176E0E69B002B3AD19A46AE
:1010D00003AB994604AE434652469D1A402D00D9B3
:1010E0004025C2450ED0019B3700534400249B4647
:1010F0005B46185DFFF744FBFFF748FB013401C76F
:10110000A542F5D8AB009B4600235A460393310015
:101110004B4644A80CF096F8041E06D1AA44039B43
:10112000D04546D99B45D6D0012444A80CF06AFB93
:101130002000DD239B009D44F0BCBB46B246A9467F
:10114000A046F0BD00239A4603AB994604AE434641
:1011500052469F1A402F00D94027D04515D0019BF9
:10116000002453449B465B46185DFFF709FBFFF7DD
:101170000DFB00222900FFF715FB2900FFF75EFB9E
:10118000A3000134F050A742EDD8BB009B460023DA
:101190005A46039331004B4644A80CF053F8041E02
:1011A000C3D1BA44039BD04503D99B45CFD001247A
:1011B000BBE79B45B8D144A80CF0C0F9050044A892
:1011C0000CF020FB0400002DB2D02C00B0E7C0468C
:1011D0008CFCFFFF30B58C4CA544040008001100C6
:1011E00004AAFFF733FC8021884B894A0093490009
:1011F000230034A804F0CCFA0A2234A974A80BF016
:10120000D9FB041E03D02000824B9D4430BD0C90BE
:101210000D2281490CAB74A80CF014F8041E00D008
:10122000EBE00C9B0D2B00D0E6E0049802F0C8FD2B
:101230007A4D009001912A00A0210CA804F0A8FA90
:101240000CA817F089FB03AB020005000CA974A8D9
:1012500003940BF0F7FF041E00D0CEE0039B9D42E9
:1012600000D0CEE0059802F0ABFD6D4D00900191ED
:101270002A00A0210CA804F08BFA0CA817F06CFB34
:1012800003AB020005000CA974A803940BF0DAFF6D
:10129000041E00D0B1E0039B9D4200D0ACE0069854
:1012A00002F08EFD5F4D009001912A00A0210CA854
:1012B00004F06EFA0CA817F04FFB03AB0200050018
:1012C0000CA974A803940BF0BDFF041E00D094E099
:1012D000039B9D4200D094E0079802F071FD524DAF
:1012E000009001912A00A0210CA804F051FA0CA84A
:1012F00017F032FB03AB020005000CA974A803949D
:101300000BF0A0FF041E78D1039B9D4279D1089871
:1013100002F056FD454C009001912200A0210CA83E
:1013200004F036FA0CA817F017FB00230200039311
:10133000050003AB0CA974A80BF084FF041E5CD15C
:10134000039B9D425DD1A021099B394A0CA804F062
:101350001FFA0CA817F000FB03AB020005000CA954
:1013600074A803940BF06EFF041E46D1039B9D42AC
:1013700047D10A9802F024FD2E4D009001912A00D9
:10138000A0210CA804F004FA0CA817F0E5FA03ABAE
:10139000020005000CA974A803940BF053FF041E6F
:1013A0002BD1039B9D422CD10B9802F009FD224DBD
:1013B000009001912A00A0210CA804F0E9F90CA8E2
:1013C00017F0CAFA03AB020005000CA974A8039435
:1013D0000BF038FF041E10D1039B9D4211D174A85D
:1013E0000CF0ACF8050074A80CF00CFA0400002D09
:1013F00000D108E72C0006E7012474A80CF002FADB
:1014000001E70134F9E7C046CCFBFFFF08B5011046
:101410003CB401103404000014B5011024B50110CF
:1014200030B501103CB5011048B5011058B5011098
:1014300064B5011074B5011084B50110F0B55746BC
:101440004546DE464E46E0B5854C8A46A544904664
:10145000041E41D000293FD0002A3DD08021814B7D
:1014600049001A000893804B0093030022A804F05F
:101470008FF90A2222A9A2A80BF09CFA051E2CD1F2
:10148000002399469B460A9443464A469E1A402E9C
:1014900000D94026C8450CD05746002462AD4F44C1
:1014A000385DFFF76DF9FFF771F9013401C5A64208
:1014B000F6D85B46B7001D933A001DAB62A9A2A8FF
:1014C0000BF0C0FE002811D1B1441D9BC84512D9B4
:1014D0009F42D9D001250AE013252800634B9D4483
:1014E000F0BCBB46B246A946A046F0BD0500A2A886
:1014F0000CF088F9F1E70A9C9F42EBD1A2A80CF00E
:101500001DF80500A2A80CF07DF9002DE5D10028FA
:1015100000D0FFE18021564B089A00934900230038
:1015200022A804F035F90A2222A9A2A80BF042FA57
:101530000023051E9946D0D1A34643464A469F1A2A
:10154000402F00D94027C84511D05446002562AE2F
:101550004C44605DFFF714F9FFF718F900221021E1
:10156000FFF720F9013530800236AF42F1D8002371
:101570007E001D9332001DAB62A9A2A80BF062FE93
:101580000028B3D1B9441D9BC84503D99E42D4D08D
:101590000125ACE75C469E429CD1A2A80BF0CEFF91
:1015A0000500A2A80CF02EF9002D96D1002800D03D
:1015B000B0E180212F4B089E0093320023004900A8
:1015C00022A804F0E5F801234246009351460F3368
:1015D00022A8FFF763FD051E00D07EE78021264B81
:1015E000320000934900230022A804F0D1F80A2217
:1015F00022A9A2A80BF0DEF90023051E9B4600D00D
:101600006BE7A14643465A469E1A802E00D9802693
:10161000D84511D05446002562AF5C44605DFFF7A9
:10162000AFF8FFF7B3F800220821FFF7BBF8013548
:1016300038700137AE42F1D8002332001D9362A901
:101640001DABA2A80BF0FEFD002800D04EE7B3446E
:101650001D9BD84512D99E42D4D0012547E7C046EC
:1016600014FBFFFF3CB4011094B50110EC04000022
:10167000A4B50110B0B50110C0B501104C469E4292
:1016800000D027E7A2A80BF059FF0500A2A80CF094
:10169000B9F8002D00D020E7002800D03AE18021E1
:1016A000B24B089E009332002300490022A804F0A8
:1016B0006FF80123424600935146073322A8FFF7F3
:1016C000EDFC051E00D008E78021A94B32000093F5
:1016D0004900230022A804F05BF80A2222A9A2A84C
:1016E0000BF068F90026051E00D0F6E64546C84610
:1016F000534600279C192078FFF742F8FFF746F879
:1017000000220421FFF74EF843B29946731C3A00B9
:101710000137AB4200D2D3E04446A8464D4693463B
:1017200000212800FFF78CF9BC215A4604AB490080
:101730005B18985400233A001D9362A91DABA2A820
:101740000BF080FD051E00D0D1E61D9B9F4200D00E
:10175000C0E6A2A80BF0F2FE0500A2A80CF052F819
:10176000002D00D0B9E6002800D0D3E08021814BC5
:10177000089E009332002300490022A804F008F8D4
:101780000123424600935146033322A8FFF786FC0B
:10179000051E00D0A1E610224146504613AB18AFFB
:1017A000FFF760F83B00082241465046FFF75AF821
:1017B0000422414650461DABFFF754F880216E4B82
:1017C000320000934900230022A803F0E1FF0A221F
:1017D00022A9A2A80BF0EEF8051E00D07DE66290CB
:1017E0003722664962ABA2A80BF02CFD051E00D083
:1017F0007DE61DAB0F9343465B0010934346629A10
:10180000119301335B080E971293372A00D061E6DB
:101810000DAB9A4610AB994613AB98464D464446DD
:10182000574B0A93574B0B93A3682069994623683B
:10183000984602F0C5FA08900991E06802F0C0FAF3
:101840006268060093464A46540064080F00201C54
:101850004D4902F048FA00285ED14B49201C02F0A5
:1018600035FA002858D15A462B68C02105930492B6
:10187000089B099C02960397009301940B9A434698
:1018800062A803F085FF62A817F066F80023040041
:1018900002000C9362A90CABA2A80BF0D3FC0028A9
:1018A00000D023E612AA0C9B95424ED00422944607
:1018B0000435E2449C4200D00CE653461C68B3E772
:1018C0006078FEF75DFFFEF761FF00220421FEF75E
:1018D00069FF41B24846FFF7B3F8782204ABFF3204
:1018E0009B180236D855B5422CD90234802F00D02F
:1018F00001E70023F73A1D9362A91DABA2A80BF0E4
:10190000A1FC002800D0F1E51D9B802B00D1EFE663
:101910000125ECE50500E0E52B68484607935B46AA
:10192000069302F04DFA089B099C049005910093E0
:101930000194C0214346029603970A9A62A803F0D5
:1019400027FFA0E74446A846F4E69C4200D0C1E544
:10195000A2A80BF0F3FD0400A2A80BF053FF0500B2
:10196000002C00D1B9E52500B7E5C046C8B5011087
:10197000D8B50110E0B50110F0B5011004B60110A2
:1019800058B601103CB60110FFFF7F7FF0B5DE4670
:1019900057464E464546E0B5764CC326A5446FAC47
:1019A000019402ACA44604900500080011001A003E
:1019B000F600DB0F9B1866445B100096FFF7BAF940
:1019C000071E5CD180216C4B6C4A009349002B00B0
:1019D0002FA8059203F0DCFE0A222FA9F0A80AF036
:1019E000E9FF041E08D02000654B9D44F0BCBB46B7
:1019F000B246A946A046F0BD2522624907ABF0A831
:101A000007970BF01FFC041E35D1079B252B00D038
:101A10009EE0002398465C4B44469A460023994634
:101A20005A4BB8469B465746594D0AE0069B9D4285
:101A300000D08DE0802301345D4604365B009C427B
:101A40001FD0306802F0BCF92B003A0000900191E1
:101A5000A02107A803F09CFE07A816F07DFF4B46C7
:101A600005000200069307A906ABF0A80BF0EAFBFD
:101A70000028DBD00400F0A80BF0C4FEB3E7132469
:101A8000B1E706900122434906ABF0A80BF0DAFB60
:101A90004746A046041EEED1069B012B58D1F0A864
:101AA0000BF04CFD0500F0A80BF0ACFE0400002D7F
:101AB0005DD1002897D1384B4146059A00932FA855
:101AC000049B03F065FE0A222FA9F0A80AF072FF1A
:101AD000041E00D087E706901E22304906ABF0A80E
:101AE0000BF0B0FB041EC6D1069B1E2B30D12C4B35
:101AF0006FAE994600234C469846306802F060F974
:101B000002900391380002F0FFF8EE21890502F0FF
:101B1000A0F802F055F93B00220000900191A021AD
:101B200007A803F035FE07A816F016FF4346050088
:101B30000200069307A906ABF0A80BF083FB002870
:101B400098D10137069B812F04D004369D42D4D012
:101B5000012490E79D42FBD1F0A80BF0EFFC0500BB
:101B6000F0A80BF04FFE0400002D00D13BE72C0045
:101B700039E7C046DCF5FFFF74B601103CB4011034
:101B8000240A000084B60110ACB60110B4B60110EE
:101B900030BC011090BC0110B8B60110C8B60110DD
:101BA000E8B60110F0B54546DE4657464E46E0B56C
:101BB0005B4C1D00A54403911400002858D0002957
:101BC00056D0F022631E5200934251D2002D4FDDB9
:101BD0008021544B544A00934900030014A803F099
:101BE000D7FD032263001E1973421A40904633004A
:101BF000434499462B004A4653439A46362353445E
:101C00009B4606AF36220021380002F02BFA474BE4
:101C100014A93B805B467B801B0C3B715B461B0E13
:101C20007B713623BB720E3BBB732B0C3B762B0EAA
:101C30007B760123BB7617333B7753461A0C7B84A4
:101C40002423FA54534625221B0EBB5454A81B3A96
:101C50007C82FD820AF0AEFE824600280BD0504600
:101C6000334B9D44F0BCBB46B246A946A046F0BDEE
:101C700013239A46F3E7ED9036223900EDAB54A8D2
:101C80000BF0E0FA8246002837D1EDAA9446ED9B8E
:101C900066446F1E0296362B2BD1039BCA469B4689
:101CA000C146A8460026EDAD330042462100584605
:101CB0000097FEF7BDFF013628706870A8700335E5
:101CC000B442F1D14B46002B04D04A460021029881
:101CD00002F0C8F9002352460593EDA905AB54A8BC
:101CE0000BF0B0FA002807D1059B013F09D39A45B4
:101CF000D8D001239A4600E0824654A80BF082FD1A
:101D0000ADE79A45F5D154A80BF018FC040054A88F
:101D10000BF078FD8246002CA1D0A2469FE7C0467A
:101D2000A4F6FFFFF8B601103CB40110424D0000CC
:101D30005C090000094A83009A1810B51468402213
:101D4000544080322240064CC000A44663441A60CE
:101D5000044B9C466044416010BDC04604C0014035
:101D600004D0014000400140074B8000C3181B68AD
:101D7000C90092000A435A400C231340034A944678
:101D8000604403607047C04604C0014004D0014075
:101D9000054B8000C3181B684B4001211940034BC1
:101DA0009C4660440160704704C0014004D001407B
:101DB000064B8000C3181B68054A09015940944628
:101DC000302360440B4003607047C04604C00140AC
:101DD00004D001400123D022834012069362936114
:101DE000094A83009A1811684022514080320A4003
:101DF0000649C0008C4663441A60054B9C46052387
:101E0000604443607047C04604C0014004D00140B4
:101E100000400140094A83009A181168402251404D
:101E200080320A400649C0008C4663441A60054B64
:101E30009C461F23604443607047C04604C0014075
:101E400004D00140004001408023DB051868000FEA
:101E50007047C0460FB400B5084883B003F0F4FEE5
:101E6000049B002B07D005A91800019103F0C2FCC8
:101E7000034803F0E9FE012003F0D4FC04B701108D
:101E800030BC0110EFF3108072B6034A1368002BC8
:101E9000FCD0BFF35F8F70472C0100D0BFF35F8F82
:101EA0000022024B1A6080F3108870472C0100D08A
:101EB00070B5EFF3108C72B60D4D2B68002BFCD073
:101EC000BFF35F8F0724CB08C618C05C01230C400A
:101ED000A3401C000440034207D118433070BFF3F5
:101EE0005F8F2C608CF3108870BD1000FFF7B2FF7D
:101EF0002C0100D0F8B54746CE46884680B5EFF3B2
:101F0000108C72B6214D2C68002CFCD0BFF35F8F73
:101F10009A422CD8D4080727055D061901241740DA
:101F2000BC402C421FD007210127894609E0D40874
:101F3000055D06194C4639001440A1400C002942A9
:101F400011D001329342F2D201204042BFF35F8FA1
:101F500000220E4B1A608CF3108800280FDBC0BCE7
:101F6000B946B046F8BD254310003570EEE7BFF323
:101F70005F8F00232B608CF3108801204042434682
:101F8000002BECD00898FFF765FFC0462C0100D06D
:101F9000044A1078431CDBB2172B00D910231370AE
:101FA0007047C0466036002010B5064B064C82B024
:101FB0000100009318221F232000FFF79BFF02B0AF
:101FC00010BDC04614B70110784A00200021044B10
:101FD000044ABFF35F8F02C39342FAD17047C046F1
:101FE000000100D0800100D0054B064A1360064A6C
:101FF000136053609360D3601361536193617047C2
:102000008080808000E400E004E400E01F231840AA
:102010001E3B8340002905D0C021044A490053508B
:1020200013607047802201498B50FAE700E100E01D
:1020300001228240034B1B6813405A1E9341D8B2C1
:102040007047C04600E100E001238022834002493E
:1020500052008B507047C04600E100E0064B103044
:102060009B688000C358054A00209B1A5F229A4251
:102070004041C0B27047C04600ED00E06436002029
:1020800010B5EFF3108C72B60F4A1368002BFCD01A
:10209000BFF35F8F0D4B10309B6880001B580C4ABC
:1020A000934201D099420CD1084B9B681950BFF361
:1020B0005F8FBFF35F8F0022034B1A608CF3108891
:1020C00010BD01F03DF8C046240100D000ED00E055
:1020D000C1010010F0B557464E46DE464546E0B514
:1020E0008A4685B00600EFF3108972B663490B6823
:1020F000002BFCD0BFF35F8F0021614B59568C46FB
:10210000002900DAB7E049000D005E4C6544AD00DF
:1021100067190291B979103619705B4BB1009B6851
:1021200001915B58191B5F2935D80121180088439C
:10213000C679964200D875E09B46029B019E984660
:10214000039507E04D006D18AD006519EB799342DA
:102150004ED92800062141560029F3DA45465B4650
:1021600001960295061D494D0396039E043FBF1B31
:102170003F05474E7F0D374366468780867102983C
:10218000604480002418E27152464248A5802060D5
:10219000A171A26018E040498B4200D06BE03F4B38
:1021A0003B4963533E4B0235043B65195B1B1B05E2
:1021B0005B0D0B437B803B4BFA71BB80FF23BB71F4
:1021C0005346BB6001233B432F4A01999268535009
:1021D000BFF35F8FBFF35F8F0022284B1A6089F334
:1021E000108805B0F0BCBB46B246A946A046F0BD7B
:1021F00001964646029686885B467605B346061DDE
:10220000039D03965E463615B346061DB046C3448D
:102210005E4604356519751BE0262D056D0D3602E9
:102220003543A2E7204BFA719C46030066461B1B10
:102230005B415E43360DB446AE1CB046A0444646F4
:10224000164B6353164B0435043B9B1B1B05104E6A
:102250005B0D33437B806319C31A043B1B055B0D85
:102260003343BB806346BB715346BB60094B03607D
:102270003B000B43A8E700F063FFC046240100D0F9
:10228000095701206436002000ED00E001BD000088
:1022900000E0FFFF01488047C101001000A1FFFFDF
:1022A000C436002001BDFFFFAAAA000070B50124BA
:1022B0000443EFF30581EFF3108C72B62D4A1368D7
:1022C000002BFCD0BFF35F8F2B4A05002B4BAD1AC0
:1022D0006D416B431B0D2A4D8900AE685BB2765889
:1022E000A6422CD00621515699422CD0122151568B
:1022F000994234D01E215156994232D02A2151564A
:10230000994230D03621515699422ED04221515611
:10231000994222D04E215156994228D05A215156E5
:102320000724994210D0174A117813708171BFF3B6
:102330005F8F00220F4B1A608CF3108870BDAA6863
:10234000114C5450EFE7002461000919890052181C
:10235000FF2191710D499180E5E70524F4E70124FF
:10236000F2E70224F0E70324EEE70424ECE7062476
:10237000EAE7C046240100D064360020AAAA000083
:1023800000ED00E009570120C101001001BDFFFF71
:1023900010B5084B084C82B00100009300220523C1
:1023A0002000FFF7A7FD002801DB1F23181A02B049
:1023B00010BDC04630B701100E570120024B9C469D
:1023C00061448900016070474000003470B5114CD1
:1023D000114DAC420FD2FF262368002B0CD0FFF723
:1023E000D7FD01002000FFF7E9FFA680BFF35F8F54
:1023F0000834AC42F0D370BDFFF7CAFD01002000E5
:10240000FFF7DCFF2671BFF35F8F0834AC42E3D3E4
:10241000F1E7C046C43E0020E43E002010B50400B1
:10242000FFF7B6FD01002000FFF7C8FFFF2323716F
:10243000BFF35F8F10BDC04610B504000120FFF749
:10244000B3FD034BC3189B002360BFF35F8F10BD28
:1024500040000034034B9C46614489000160BFF397
:102460005F8F70474000003440BF0020002170475C
:10247000F0B5DE4657464E464546E0B583B0EFF32D
:10248000058203231340B24A9900525801919046A5
:1024900001229A40AF4B00921A60082343449946A8
:1024A000009BAD484363434608229B5E9A46002B3F
:1024B00000DBBDE043469B881BB2002B00DA2BE11A
:1024C00043461B69EFF3108272B619680029FCD0ED
:1024D000BFF35F8F43469E88012341465B428B805A
:1024E00036B20B69BFF35F8F0021196082F3108849
:1024F000002E24DB43465D697400A419E4002C1906
:10250000A36849469A46434608229A5EE068002A34
:1025100008DA0EE0874200D17EE019000023CA5E8F
:10252000002A06DB53009B18DB00EB18DF688742AC
:10253000F0DD0E800023E65E2280002EDCDA4346CA
:102540000821595E002900DAE6E0434682485A69CC
:1025500084464B005B180199DB00D3186144826A02
:102560009D68DC680B69AE1A9B1A9E4219D3036AF8
:10257000009A1A4215D043469B79002B16D1764813
:1025800000F070FB8C4204DC00D089E7854200D863
:1025900086E740BF03B0F0BCBB46B246A946A046A2
:1025A000F0BD43460D619B79002BE8D000234246E5
:1025B0009371434608229A5E4846531CDFD0474633
:1025C0000026A846A34602E00800531C20D0530072
:1025D0007D699B18DB00E9181400EA5E4B881BB28A
:1025E000002BF1DA02803B69EFF3108A72B61D000E
:1025F0002B68002BFCD0BFF35F8F7B880B803B697F
:102600007C80BFF35F8F1E608AF31088531CDED17D
:1026100045465C46B846B2E79F68574500D87CE718
:102620000E800023E65E2280002E00DB64E786E752
:10263000424652695B0093465344DB009B445B4631
:102640009E68DF6800F00EFB8F422ADC30D05B46CC
:102650005A461B695469022B32D041460820085E55
:102660005288000421001043984704000D00230005
:102670002B432FD0002D49DA30003900001BA9412F
:102680005B469860D96000229A5E002A09DB4346C7
:102690005D6953009C18E4002C19A768E4688C421B
:1026A0005CDD43469B881BB2002B00DA47E707E757
:1026B0008642F6D85B465A461B695469022BCCD138
:1026C000200023699847002804D065682468230007
:1026D0002B43CFD15B4642461B8813811269EFF32F
:1026E000108372B611680029FCD0BFF35F8F424699
:1026F000594652880A804246514651801269BFF3BA
:102700005F8F0021116083F31088CAE7124800F040
:10271000A9FA00196941B3E70F4C200000F0A2FAB2
:1027200080220023A446120680185941019AA56A06
:1027300062441369461B5B1B9E4201D2106128E76D
:10274000236A009C1C4200D023E7106121E7C046A9
:102750000C4F00203C700540004005408C4201D1E8
:1027600087429ED84646328108360CE08C4214D00F
:102770001E000023F25E002A0ADB53009C18E400CE
:102780002C19A768E4689B18DB00EB188C42EDDD80
:102790005B461A805346338083E78742E8D9F7E7E0
:1027A00070B52C4C2569002D00D070BD2A4E032138
:1027B000300000F04DFAE660FFF7EAFB274B0322FA
:1027C0009C46D02322701B061B6801216370244B9A
:1027D0006044A3600F23800020610220638063694E
:1027E0004942A18019800231198647311D83585210
:1027F00018315A5275325C39995218320131995256
:102800001832013199521832013199520835183273
:102810009D520231183299521832013199521832B0
:1028200001319952183201319952183201319952BD
:102830001832013199520B4B0B49DC600130356283
:10284000FFF71EFC01210320FFF7E0FB074B1D6093
:10285000ABE7C046DC3600200040054040000034B5
:10286000FFFF10000C4F002071240010386005405D
:1028700000487047DC360020F8B51F0008AB1B7815
:1028800004001600002B08D100F0F4F932003B00E0
:10289000121A8B41002B00DA53E02269EFF310800B
:1028A00072B61368002BFCD0BFF35F8F0223E15E8A
:1028B00063694A005218D2009B18002937DB1A8836
:1028C00062802269BFF35F8F0025156080F3108856
:1028D000069A9E60DF601A61079A5A615A8801322F
:1028E0005204520C101C002A1FD082B258800804D7
:1028F00010432669EFF3108772B63268002AFCD0C5
:10290000BFF35F8FA2881A80A1802369BFF35F8F16
:1029100000221A6087F310880B4923788C46013215
:102920009A40E36863441A60F8BD0120DDE723693B
:10293000BFF35F8F00221A6080F3108801204042AD
:10294000F2E70020F0E7C0463C20000070B501002F
:102950000469EFF3108C72B620680028FCD0BFF336
:102960005F8F02200D5E4C6968004019C00024187A
:10297000002D37DB208848800869BFF35F8F002671
:1029800006608CF31088E36063880498013320614B
:102990005B0405985B0CA26060611A1C002B1FD0C1
:1029A00093B22804628018430A69EFF3108C72B660
:1029B0001368002BFCD0BFF35F8F8B8823808D8042
:1029C0000B69BFF35F8F00221A608CF310880B78BD
:1029D00001329A40CB6808498C4663441A6070BD46
:1029E0000122DDE70B69BFF35F8F00221A608CF3D1
:1029F000108801204042F2E73C20000010B54389D6
:102A00000A1493421ADD53009B184269DB00D31865
:102A10000469EFF3108C72B62268002AFCD0BFF371
:102A20005F8F5A88090494B2090C8A4208D003695E
:102A3000BFF35F8F00221A608CF31088002010BD56
:102A40008022120214435C80012302698371BFF368
:102A50005F8F002111608CF31088044902788C4646
:102A60009340C268012062441360E8E73C20000004
:102A700040787047F0B583B0040000F0FBF8FA220C
:102A800006000F00002320000021920001F0AAF8A8
:102A90008023801979411B0604000D00994202D35E
:102AA0000124244D644206267642F71736196F41F9
:102AB000AF4212D80FD000F0DDF832003B00121AFE
:102AC0008B41002B13DC002B30D02000290000F0BC
:102AD0000FF903B0F0BDA642EDD90026002700F0A3
:102AE000C9F832003B00121A8B41002BEBDD00F0DD
:102AF000C1F832003B00121A8B41002B0ADB002385
:102B000001930D4B320000930C483B00FFF71EFF72
:102B10000028DADB39000A4A536A994204D8906ADD
:102B2000B042D2D29942D0D120BFF5E7002ACCD012
:102B3000DDE7C046FFFFFF7F69240010DC36002080
:102B400000400540F0B5D6464F464646C0B50400A5
:102B50000D0082B0EFF305878846002F0ED039496B
:102B600000204B6AAB4203D38A6A0130A24229D3C8
:102B700002B0E0BCBA46B146A846F0BD324B994619
:102B8000DB689A464B4650461E7800F06BF80B0007
:102B9000514602000436B600715820008E1A2900F2
:102BA000801A99418F421BDC18D0264B5A6A424545
:102BB0000DD220BF234A536A43453AD3926A01207B
:102BC000A242D5D25B1B5A1E9341D8B2D0E79B6A72
:102BD0000120A342CCD24245CAD1EAE78642E4D9D9
:102BE00000F048F822002B00121A8B41002B1CDB4E
:102BF00000230193154B2200009348462B00FFF75A
:102C0000A5FE011E11DD0F4B5A6A424513D220BFAB
:102C10004846FFF7F3FE0B4A0020536A4345A7D30B
:102C2000926A0130A242A3D2CCE7064A536A4345D6
:102C3000C4D200209CE79B6AA342E9D24245E7D177
:102C4000E5E7C04600400540DC360020692400105E
:102C500010B5024A0248FFF72BF910BD4CB701101E
:102C60007C4A00200300416A0A00986A596A8A4235
:102C7000FAD17047034B596A0A00986A596A91421F
:102C8000FAD170470040054070B504000D00174AA6
:102C9000536A1900966A536A8B42FAD130001900C0
:102CA00024184D41AB4216D813D0104A2B00526A5B
:102CB000954203D90D494A6A9A42FCD39A4207D1F8
:102CC0000A4A02E0516A994202D1916AA142F9D3BB
:102CD00070BDA642E9D9054B5B6A1C005A1CEFD0B7
:102CE000012301246442E5175B42E3E7004005400D
:102CF000064A536A9942FCD807D1044B02E05A6A4B
:102D0000914202D19A6A8242F9D37047004005404D
:102D100010B515F0F3F910BD0022835E0B4A9446FE
:102D200063444B610223C356013B0B610323C3562B
:102D3000CB600523C3568B600623C3564B60072325
:102D4000C3560B6001235B420B62704794F8FFFF90
:102D5000F8B5DE464E4657464546E0B58B4605007B
:102D60000A991800160000F0B3FB0A9B6C001F02C2
:102D7000324B64199C46A4006444636881469F42B8
:102D800000D967602B1FDBB29846012B30D9C023D6
:102D900080229B01E31812011A60294BAD0059599A
:102DA0009A4600291BD17301E026226853401E4039
:102DB000802342465B01E3181E60012A30D980233C
:102DC00080229B01E31812011A6053464A4667604D
:102DD0005A51F0BCBB46B246A946A046F8BD586958
:102DE00000F076FB013043001B18033BFDD2DAE70D
:102DF0005B46012BCBD1C02303229B01E3181A6051
:102E0000023AA3681A42FCD07301E0262268AD00A2
:102E100053401E4080230A4A5B019246E3181E601D
:102E20005A462168514003220A401A6001225B463B
:102E30009A40A3681A42FCD0C1E7C0460080004017
:102E4000844A0020F0B546464F46D646C0B51F001E
:102E5000344B44009C462418A400644463688846AC
:102E60001600FF2B02D880235B006360031FDBB2D8
:102E70009A46012B30D9C02380229B01E31812010E
:102E80001A60294B85005959994600291BD17301B5
:102E9000E026226853401E40802352465B01E3181F
:102EA0001E60012A30D9802380229B01E318120181
:102EB0001A6080235B0063604B465F51E0BCBA46FA
:102EC000B146A846F0BD586900F002FB013043004E
:102ED0001B18033BFDD2DAE74346012BCBD1C023BD
:102EE00003229B01E3181A60023AA3681A42FCD03D
:102EF0007301E0262268850053401E4080230A4A61
:102F00005B019146E3181E6042462168514003224E
:102F10000A401A60012342469340A2681342FCD043
:102F2000C1E7C04600800040844A0020014B800079
:102F3000C0587047844A0020F8B5040021481E009C
:102F400017000D0000F0C4FA0100380000F0C0FACC
:102F5000069B36041B031E432368002B20DB1A4B01
:102F60001A49E3185A1E93418022920194465B420B
:102F70001B0B174A1B0363441360164A13601F00A0
:102F80000A689743FBD1144B2560E2182123A06007
:102F900013602368002BFCDA0823E6601360F8BD99
:102FA0003F2322681340AB42D9D1A3681B051B0DF8
:102FB0008342D4D1EE22E368D2021340B342CED191
:102FC000EDE7C046001BB7000040FDBF08C0004051
:102FD00000E0004000F000400430000010B5802404
:102FE0001C4BE4051C6000281AD001231A4C18431E
:102FF0001A4BDC611A4C44401C6259629862802171
:10300000144BC9051960174817490860E021C90425
:103010001960002A07D18022144B12061A6010BDD5
:103020000E4BD861EBE753019B1A9B009A18802343
:1030300012015B049A4209D213000D490B60074B41
:103040005A608022094BD2051A60E8E7094B1A0042
:10305000F3E7C04600B00540D3C007B0008005408C
:103060002D3FF84FFCFF01000820014000A0054063
:10307000F04E0020FFFFFF008023024A9B000B431D
:10308000D362704700800540142310B501001888F2
:1030900004331B88984710BD162310B5010018880B
:1030A00002331B88984710BDF8B54746CE4680B519
:1030B0000F1E19D01423994604330400002501265D
:1030C00098464B461888434621681B88984701C498
:1030D000431E9841013540420640AF42F1D13000D5
:1030E000C0BCB946B046F8BD0126F8E7142370B558
:1030F0000400188804331B880D0005499847030015
:103100000020002C01DB0130A04029009847C04678
:1031100055420000AA23064A1B0113608D235B0061
:10312000D3600449044B19605368002BFCDA7047E4
:103130000040024000B0FA00006002407047C04604
:1031400010B50148FEF786FE70B7011070B5074D47
:10315000074EB54209D20024013E761BB60808CDC1
:10316000984723000134B342F9D170BDC8B20110B1
:1031700008B3011070B5074D074EB54209D20024BF
:10318000013E761BB60808CD984723000134B342B0
:10319000F9D170BDFCB2011008B30110054B064A0D
:1031A00006491A60064A074B1A6010000B689843DC
:1031B000FBD1704700E00040BFCDFBFE08C00040DF
:1031C000FE7F3C0000F00040044BDB6C002B03D181
:1031D0008022034BD2021A607047C0460000115093
:1031E0004C201150044A054B1A60054A1368DB0154
:1031F0008033FBD17047C046FFFFFF0100F0004065
:1032000008C000404022034B9A675A671A67DA6683
:103210007047C04600F0014010B5FEF7D7FE10BD64
:10322000F8B52749274C284D641AA4082200302CF1
:1032300000D930222800920000F01AFF2F2C3BD832
:1032400030202F21A700EB195B07204A001BDB0F62
:10325000091B052916D92600002B01D0EA51661C4E
:10326000C01AE3189B004108EB18C900C9181A607E
:103270005A6008338B42FAD1012303421CD0984391
:103280008419A700EA51631C2F2C15D09B00EA502B
:10329000A31C2E2C10D09B00EA50E31C2D2C0BD02D
:1032A0009B00EA50231D2C2C06D09B00EA50631D86
:1032B0002B2C01D09B00EA50054B9D60F8BDC04609
:1032C00000010010C001001000000020C10100102A
:1032D00000ED00E0002310B5294C82B0A367FFF792
:1032E00019FF0122274B1A60636C012BFCD10322CA
:1032F000254B1A60224A936B012BFCD101330093BA
:103300000121224A22480433FFF716FE052301213A
:103310000093204A2048FFF70FFE002202210420DC
:103320001E4BFFF78FFD0022012105201C4BFFF7EC
:1033300089FD0022002107201A4BFFF783FD0022A0
:1033400000210820174BFFF77DFD8023DB00009351
:10335000002200210920134BFFF7FAFC0022104B3A
:1033600000210620FFF76EFD0420FFF7DFFD0E4968
:1033700000F0AEF801000020FFF77EFE02B010BDA5
:10338000008000403CB0004030B00040002F685941
:1033900000800240008C864700C00240001BB7003E
:1033A00040597307006CDC0240420F000B4B1F308A
:1033B0005B68002B00D000BE05220100074B000611
:1033C0005A60FA3291430A001021400F0A43F0314B
:1033D0008140DA60024A4A401A61704790ED00E08D
:1033E0000FFF0010024BD8688007C00F7047C0461F
:1033F00000C00540092010B5FFF798FD8022074B5B
:1034000012021A60064B07491A6014000B689C43AD
:10341000FBD1054B0138186010BDC04600E00040EC
:1034200000F0004008C0004000C005400F4B30B520
:10343000DA68920718D5D9699C694B015B0F037153
:103440001F230A0C1A4042713F220D0A15400A4000
:10345000C2712202120D02802205120F23408571D3
:103460008270C370012030BD0020FCE700C0054021
:1034700001480421014B184700370020A9300010F3
:10348000124A936F9B0815D29066D166002905D029
:10349000FFE7FFE7FFE7516F106F704704B580212A
:1034A0000906C2175140002800D0C84317F074FE27
:1034B000002104BDF0B5146E556E576F166FFFF7FF
:1034C000E3FF1466556657671667F0BD000000D02D
:1034D000114A936F9B0813D210665166002905D0DC
:1034E000FFE7FFE7FFE7516F106F704704B5002853
:1034F00001D00020C04317F04FFE002104BDC0469C
:10350000F0B5146E556E576F166FFFF7E5FF146632
:10351000556657671667F0BD000000D094464A4ACA
:10352000926F9208624601D228E0C046F0B5464E3E
:10353000346E756E776F366F00F020F89446424A0D
:1035400014665566576716676246F0BD94463E4A54
:10355000926F9208624601D254E0C046F0B53A4EEE
:10356000346E756E776F366F00F04CF89446364ABD
:1035700014665566576716676246F0BD002B24DB5C
:1035800011D000293EDA00B5C943404200D10131D3
:1035900000F038F8C943404200D10131DB435242C8
:1035A00000D1013300BD002AEBD1002801D1002950
:1035B00005D00020C90FC90701D1C043410800B59B
:1035C00017F07AFE0022002300BD00B500290ADBB7
:1035D000DB43524200D1013300F014F8C9434042AA
:1035E00000D1013100BDC943404200D10131DB436C
:1035F000524200D1013300F005F8DB43524200D1C2
:10360000013300BD002923D1002B18D1002A0CD092
:10361000BC460D4F38667A6600210023FFE7FFE7BE
:10362000FFE77A6F386F67467047002801D0074878
:10363000010000B517F040FE0022002300BD02008B
:103640000B00002000217047000000D0FFFFFFFFAB
:10365000002B00D0BFE0130C28D1002AE7D080B4A3
:10366000114F39667A66FFE7FFE730B4040C7B6FD1
:10367000396F1B0423433B667A66FFE7FFE7FFE7EA
:10368000C04684B27B6F3D6F1B0423433B667A6662
:10369000FFE7FFE7C04600232C042D0C7A6F386F3C
:1036A00000196941B0BC7047000000D0F0B59446E5
:1036B0000025140E01D112020835140F01D1120198
:1036C0000435940F01D192000235D40F01D152007C
:1036D0000135D40B0134254F7C66254C3C660E0C1D
:1036E00093B2FFE7FFE7FFE73C6F6643360C7703D3
:1036F000BE467343DF0B5B04C01AB941130C73431E
:10370000DB18C91ACE086643360CB64493B273432D
:103710001F0F1B01C01AB941130C73431F0B1B056C
:10372000C01AB941860D8F023E436643360C092DFF
:1037300024DB520A7243801A7703460A6643360C2A
:1037400016235B1BDE40DF40BF1964466643821BC5
:103750007046043506330100D940A840C01900D393
:103760000131A24206D20023F0BD0000000000D0CB
:10377000FFFFFFFF121B0130F3D3F1E709277F1B87
:10378000FE406446A2B27243801A00D20139220C74
:103790007243130C1204821A99410B0070460435CF
:1037A00013370100F940A840801900D30131002BE4
:1037B00002D1A2420AD2F0BD013000D30131121B66
:1037C000FAD2013BF8D1A24200D2F0BD013000D3C1
:1037D0000131121BF7E7F0B51C0C00D080E00CB4EF
:1037E00000251C0A04D11B02160E334312020835B1
:1037F0001C0B04D11B01160F3343120104359C0B23
:1038000004D19B00960F334392000235DC0B02D1AA
:1038100092185B4101351C00971864410134464FF2
:103820007C66464C3C660E0CFFE7FFE7FFE7C046B0
:103830003C6F6643360C7703BE4697B27743C01B96
:1038400000D20139C01B00D201399FB27743C91B96
:10385000C91B170C77437E04FF0B801BB941CE08B0
:103860006643360C0C2D33DBB644120B1F053A436E
:103870001B0B97B27743C01B00D201399FB277432D
:10388000C91B170C77433E043F0C801BB941860DC2
:103890008F023E43664329277F1BFE400C3D77463F
:1038A000AF40BF1930BCA2B2ABB272437343801AAF
:1038B0009941220C7243130C1204801A99410200A0
:1038C0000B000137001BA941F9D2781E0021F0BD81
:1038D0000C277F1BFE4077467F0BAF40FF19E0E7C8
:1038E00000245D1C07D0144F7D663966FFE7FFE7B3
:1038F000FFE7FFE73C6F95B29EB265436643401B0E
:10390000B141150C1E0C6543664336042F0C3E4333
:103910002D04401BB141994204D202000B0020004B
:103920000021F0BD01D19042F7D3801A99410134B2
:103930009942F2D3F6E70000000000D0FFFFFFFF3E
:1039400048404140484018B4134B5B68019308BDA0
:1039500018B4114B1B68019308BD94460F4A926F2F
:10396000920805D2624618B40B4BDB68019308BD80
:103970000A4AF0B5146E556E576F166F6246FFF720
:10398000F2FF064A1466556657671667F0BD18B40D
:10399000014B9B68019308BDE0420020000000D06D
:1039A000FFB550404240504059404B40594000E024
:1039B000FFB5154F4C00640D03D0BC4204D10C037D
:1039C00014D80020090D09055C00640D03D0BC4229
:1039D00004D11C030AD800221B0D1B0501264B40F5
:1039E00009D44B4003D58B4200D18242FFBD99429E
:1039F000FCD19042FFBD0B43DB1803431343F5D0CA
:103A0000C9434918FFBD0000FF07000000B5FFF7DC
:103A1000CFFF01D0002000BD012000BD00B5FFF7A1
:103A2000C7FF804100BDC04600B5FFF7B9FF01D90F
:103A3000002000BD012000BD00B5FFF7B1FF8041AF
:103A400000BD012040054A00121804D85A0012187F
:103A500001D8002070470120704700000021002895
:103A600005D17047C1174840401AFAD0C90713B5AD
:103A7000064B1B6898470CBC441CA2401005120B57
:103A80000349091B09051943114310BDD4550120F1
:103A90001F04000010B54C00620D8023D218DB001B
:103AA000D21A5B057E2A10DD9E3A13DACC17090381
:103AB000490819435242D140640001341532202A8A
:103AC00005DAD0400843604310BD002010BD084611
:103AD000604310BDC80FC018013810BD18B4024BA8
:103AE0005B6A019308BD0000E042002018B4024B5D
:103AF000DB6F019308BD0000E042002018B4024BC8
:103B00009B69019308BD0000E042002010B5014808
:103B1000FEF7A0F97CB70110132370B51D78012DB5
:103B200019D014DD1D48FFF7B7FA06001C48FFF74F
:103B3000B3FA1C4C80223100200000F099FA022DCB
:103B400006D01948FFF7A0FA184B186070BD154C45
:103B5000174BA364F5E7174B124C23606360A36017
:103B6000E36023616361A361E36123626362A36233
:103B7000E36223636363A363E36323646364A36413
:103B8000E36423656365A365E36523666366A366F3
:103B9000E36623676367A367E367D9E753440000DD
:103BA00053460000E04200204C330000D455012071
:103BB000B93B00100D3B001007B5604601880A0AAA
:103BC0000230DF2AFAD1C9B2820804D302884088C1
:103BD0000004104300E00068014A5050039007BD04
:103BE000E042002051434343C9188C46110C83B274
:103BF0004B4310B4040C614392B280B25043624311
:103C00001C041B0C001910BC59411304120CC018E1
:103C100051416144704700004840414048400E4BCC
:103C20005B6818470C4B1B6818470C4A936F9B083E
:103C300002D2094BDB681847F0B5146E556E576F0A
:103C4000166FFFF7F6FF054A146655665767166745
:103C5000F0BD014B9B681847D8550120000000D0EB
:103C600007B548404140484001E0C04607B5420022
:103C7000120E03D0FF2A03D1420218D8C00DC0058E
:103C80004A00120E03D0FF2A03D14A020FD8C90DF1
:103C9000C9050122414005D4414001D5814207BDFB
:103CA000884207BD0143491801D0C043001807BD31
:103CB00000B5FFF7DBFF01D0002000BD012000BDF3
:103CC00000B5FFF7D3FF804100BDC04600B5FFF748
:103CD000CDFF01D9002000BD012000BD00B5FFF7D8
:103CE000BFFF804100BD01231B064200D21804D84B
:103CF0004A00D21801D80020704701207047491AA5
:103D0000002807D108467047C10FC90700D54042B7
:103D1000002817D0F44603B40B4B1B68984706BC29
:103D200081409E384042803107D20B0607D04900BF
:103D3000490AC0051043084360470130F8E7490AC3
:103D40008902F5E770470000D455012041000A0EB2
:103D500080231B067E2A0BDD9E3A0BDAC117400238
:103D6000400818435242D04049000131484370474F
:103D700000207047C00FC01801387047C0420DD3F3
:103D800000B540004008002100F00EF8002801D4E2
:103D9000404200BD8020000600BD0000014BDB69F1
:103DA00018470000D8550120014B5B6A18470000F6
:103DB000D8550120014B1B6B18470000D855012036
:103DC000014BDB6F18470000D8550120014B9B6960
:103DD00018470000D85501204100090E862902DA53
:103DE000044BDB6B1847044900B500F0FFF802BC38
:103DF0008E46F5E7D8550120DB0FC9404100090E7A
:103E0000862902DA044B1B6C1847044900B500F000
:103E1000EDF802BC8E46F5E7D8550120DB0FC9400E
:103E2000014B1B6D18470000D855012010B5014803
:103E3000FEF710F830BC0110132310B510481C78A1
:103E4000FFF72AF90100012C0AD003DD80220D487A
:103E500000F00EF90C48FFF717F90C4B186010BD75
:103E6000084C5422200000F003F922000849803257
:103E70002368002B00D1216004349442F8D1E9E793
:103E800053460000D85501204C330000D455012082
:103E90002D3E001010B5FFF7C3FF0249FFF7D9FE12
:103EA00010BDC046D95BDE3EF0B546464F46D6460D
:103EB000C0B5FF26C50DCB0D354088461700041C44
:103EC0001E40002A01D000231360FF2D5ED0002E7B
:103ED0005CD0002D5DD0201CFF2E52D03300013B62
:103EE000B246AB424DDC802212049146E10F6402DF
:103EF000640A144342464E465202520A1643B146E1
:103F0000AB4248D000294FD0534600216442ED1AFD
:103F1000002D55DD4B460120D9114042FFF7D8FA5C
:103F20001D2300219C462A000C2D00DD0C22664634
:103F3000631294404343B61A334126004C469140E5
:103F400001335B105C435918341BAD1A002DEADCB9
:103F5000A14533DC4B46E41A4C4544DBE41A0231FC
:103F600063004B4534DC31D04346002B00DA494234
:103F7000002F00D03960962153462000C91AFFF760
:103F800019FFE0BCBA46B146A846F0BDFF20C00507
:103F9000F7E70020F5E7B442F3DD730000291BD1F9
:103FA000AA46E41A0131DFE75346ED1A002DB1DCD1
:103FB0000021B4420CDB0121A41BD1E7002CCFDA95
:103FC0004B46E4180DD54C440239C9E7CB07CBD595
:103FD0004B460131E41AC7E70121AA461C1B49429E
:103FE000C2E70139BCE70131BAE7C04610B500228B
:103FF000FFF75AFF10BDC04670B504000A4E3000EE
:1040000017F052F9200013F0C7FD0500300017F03B
:10401000EBF8002D05D0054B2C199C4201D8280047
:1040200070BD0348FDF716FFC43E002000000420C9
:1040300094B7011070B50400054D280017F034F94D
:10404000200013F0B3FD280017F0CEF870BDC04675
:10405000C43E002001480421014B184710370020BE
:10406000A9300010014B1B681847000010370020D2
:10407000014B5B6818470000103700209A4200D2BD
:10408000885470477047C046F8B55746DE464E46DE
:104090004546E0B599460A9B07009A460D9B88461F
:1040A00093460B9C9B073BD10C9B9C423DD21E1B15
:1040B0000B9415000C005E442A004B46013521008C
:1040C0002020B847B542F7D1A0460B9C002C20D049
:1040D000454636195346321B013C185D29004B46B4
:1040E000B847002CF6D12B00350098460D9B9B0756
:1040F0000FD55B46EC1A0C9BA3420AD9464698465C
:104100002A004B46310020200134B8470135444590
:10411000F6D32800F0BCBB46B246A946A046F8BD7F
:1041200016001500002CD3D1E0E71600002CCFD1EB
:104130001500EEE7F0B54F464646D646C0B584B00A
:1041400098460EAB1B7894469946129B0D9C109F87
:10415000119E9A0725D4002E65D1BC4221D201229E
:104160001A409246202C00D1E9E00C9A551E3022CC
:1041700002E0202C00D17BE001342A55A742F8D878
:104180005246002A0DD0B4420BD20C9A551E302252
:10419000202C02D171E0202C2DD001342A55B442BC
:1041A000F9D1DA063CD55A052ED4002C28D10F9A25
:1041B000102A00D1B6E0022A00D1BCE030220C9CCB
:1041C000227001244A46002A65D15A0700D499E09A
:1041D0002B220C9D2A55013403930C9B62460093BD
:1041E000029643460194FFF74FFF04B0E0BCBA4685
:1041F000B146A846F0BD2024DA06EDD55A0503D411
:10420000A74266D0B44264D00F9A102A71D0022A15
:1042100057D0202CE0D02200013430250C9FBD5413
:10422000202CD9D0CEE7012215001D40AA461A4203
:1042300036D04A46002A4AD10C321A4247D1BC42F3
:10424000A1D2202C91D1202E17D82024DA06C3D554
:104250005A051BD4202F01D0202ED5D11F220F9D0F
:10426000102D6FD0022DD8D162250C9FBD54D0E700
:104270005246002A79D0202EBDD92024DA06ABD5AB
:104280005A0503D4202FE9D0202EE7D00F9A102A08
:10429000A2D12024A0E72D220C9D2A5501349BE7B2
:1042A000BC4200D37DE7202C00D05EE7DA06F0D5D3
:1042B0005A05EED4202F62D0202EEAD134001F22DE
:1042C000CDE7202C00D187E722000134CCE7013E66
:1042D000B5E7621E012CC2D10F9A102A00D06AE7FE
:1042E0009A063BD558220C9C2270283A6270022410
:1042F00068E79A060ED4202CCBD078220C9D2A5544
:10430000013486E71A0700D466E720220C9D2A555F
:10431000013461E7202CBCD058250C9A1219157075
:10432000013476E79A0608D558220C9C2270302278
:104330006270022446E76032F7E77822F5E7002A48
:1043400083D1B3E7A21E013C9D0603D478250C9FC0
:10435000BD5460E758250C9FBD545CE778220C9C47
:104360002270483A627002242CE7DA0600D433E760
:104370005A058BD4202F00D044E71F226FE73C0062
:104380001F226CE710B5002800D110BD01F010FC11
:10439000FBE7C0460B0010B5002802D049681B6837
:1043A000984710BDF0B557464E464546DE46E0B547
:1043B00099B08246894690460893229A239B100022
:1043C0001900FFF73EFB002800D0CDE0229823998A
:1043D0000122D94B5242FFF72FFB002800D0C3E047
:1043E000229823990122D54B5242FFF717FB002850
:1043F00000D0B9E02298239900220023FFF70EFB9A
:10440000002800D0F1E1229E239F8023269ADB0022
:104410001A400D92269A1A4201D106232493802332
:10442000269A1B011A403B0093460996334300D05D
:10443000B3E0002A00D0C2E1002300240A930B94C9
:10444000002304250993259B0024AB4200D95C1B63
:104450000223269A1A400C92269A134203D06B42EA
:104460006B415B421C40099B002B07D00A9A0B9BB7
:1044700030003900FFF771FA06000F0022982399E7
:1044800000220023FFF7CAFA002803D08021090682
:104490007B181F00269AAA4B009601971340089E8E
:1044A0000493249B039402934246330049465046AA
:1044B00000F0AAF90400002D67D02020269A494672
:1044C000024013005A4253415B42621C18400A9258
:1044D000330022004530D047099A6F1ED317D418F5
:1044E0005C40D30F9B46002501E0202D13D008AA85
:1044F00094461F23200063440A2101355E19FEF70C
:10450000E7FF3031317020000A21FEF7E1FF26007D
:104510000400092EE9D805230693002304930A33E7
:1045200003935B46089E029310AB0A9A0093494698
:104530003300504605970195FFF7FCFD0C9A0400E7
:10454000002A22D04246851A259AAA421DD9B04691
:104550005746160022004346494620200135B847F9
:104560000134AE42F6D810E0269B42460493259BC8
:1045700049460393249B50460293229B239C00931D
:104580000194089B00F040F90400200019B0F0BC31
:10459000BB46B246A946A046F0BD6A4B78009C4691
:1045A000400D6044FFF75EFA674A684BFFF7EFF98A
:1045B000674A684BFFF7CCF9674A3B031B0B1A436A
:1045C00004000D0009981100644B0022FFF7BBF9AD
:1045D000634A644BFFF7DBF902000B00200029005F
:1045E000FFF7B6F9FFF756FA0990FFF73BFA5E4A74
:1045F0005E4B04000D00FFF7CAF900225C4BFFF789
:10460000A7F9FFF747FA5B4A5B4B29000C902000A3
:10461000FFF7BDF904000C980D00FFF723FA574A85
:10462000574BFFF7B4F902000B0020002900FFF7F9
:104630008AF904000D0002000B000A940B95FFF7A5
:10464000A6F904000D000A980B9902000B00FFF771
:104650007FF900220E900F914A4B20002900FFF7AE
:104660007CF90022484BFFF773F902000B00200091
:104670002900FFF772F90022444BFFF769F90200A5
:104680000B0020002900FFF768F90A9A0B9B0D0028
:1046900080210400C9050020FFF755F902000B0036
:1046A00020002900FFF754F902000B000E980F9923
:1046B000FFF753F90022284BFFF74AF9344B0C9CC3
:1046C0009C46644423050022FFF761F904000D00B5
:1046D00002000B00300039000A940B95FFF79EF999
:1046E00000285DD123002A00C625099963318D4237
:1046F000AD4159466D420435002900D1A3E613436C
:1047000063D030003900234A234BFFF78DF900288E
:1047100007D0002230003900204BFFF77FF9002836
:1047200053D1249B002B00D18DE60D9B5A1E934143
:10473000249AD31A249386E6FFFFEF7FFFFFEFFF53
:10474000FFF7FFFF01FCFFFFFB799F501344D33FAE
:10475000B3C8608B288AC63F0000F03F0000F83FD6
:1047600061436F63A787D23F71A379094F930A40D2
:104770000000E03F1655B5BBB16B0240EF39FAFEC1
:10478000422EE63F00002C4000002440000018406C
:10479000FF0300002D431CEBE2361A3F80842E41BC
:1047A000099B0022013B09932000164B2900FFF7CB
:1047B000D4F80A00010003000A910B9294E7002349
:1047C00000240A930B9400230993249A099B9A428C
:1047D00014DDD31A013B24938023269ADB001A436D
:1047E00000230025269209932DE680221206944686
:1047F000229B1E00239B63441F0006E60023249394
:10480000EAE7C04600002440F0B54546DE464E4685
:104810005746E0B595B08B46904699461E9A1F9B29
:104820000A9019001000209DFFF70BF9002800D016
:10483000B0E11E981F990122C74B5242FFF7EEF8D4
:10484000002800D037E11E981F990122C34B524225
:10485000FFF7F2F8002800D0A7E01E981F99002269
:10486000BF4BFFF7E9F8002800D088E01E981F9999
:104870000022BC4BFFF7D2F8002800D07FE01E9842
:104880001F9900220023FFF7C9F8002800D0FAE0A2
:1048900000230B938023229C229ADB001C401A42A7
:1048A00000D102E1092D00D87CE106A98C462C003C
:1048B000172200233021093C62440133D154EF1AFE
:1048C000202B00D132E1A342F7D10022A44B069263
:1048D00007931E981F99FFF7DDF80500FFF7C2F850
:1048E00002000B001E981F99FFF72DF8069A079BF0
:1048F000FFF74DF808900991FFF7F0F80600FFF771
:10490000ADF802000B0008980999FFF71CF8002287
:10491000954B08900991FFF78FF8002800D1D2E05D
:1049200001363000FFF79AF8069A079BFFF77CF8EC
:10493000002801D000260135AA46002F00D098E0BB
:104940002800FFF78FF802000B001E981F99FEF752
:10495000FAFF854B002206000F00FFF75FF80CAB53
:104960009A46002845D10022300039007E4BFFF7DF
:1049700063F800283DD1EB073BD5013539E0229B98
:1049800042460493219B594603930A981E9B1F9C01
:104990000295009301944B46FFF704FD15B0F0BC5F
:1049A000BB46B246A946A046F0BD229B5B0767D432
:1049B00003226E4B22990192039121990291009357
:1049C00042464B4659460A98FFF75EFBE6E706AAC1
:1049D00094461723280063440A2101341E19FEF768
:1049E0004FFD3031280031700A21FEF749FD051EC8
:1049F00076D0202CEBD10323229A1340012B1DD11A
:104A0000219B002B1AD00B9B002B00D0BBE0229ADD
:104A10000C33134200D0B6E0219BA34200D887E0BC
:104A200006AB9C4617223023624404E021990134EE
:104A300013558C4259D0202CF8D12024229B01946C
:104A40000393219B02935346B9E706AA9446172382
:104A50000A216344300001341D19FEF739FD30315D
:104A6000297030000A21013FFEF732FD092E46D998
:104A70000600202CE9D155460CAB20249A46B8E715
:104A800004223B4B96E71E9A1F9B00200021FEF755
:104A90005AFF01230B938023229C229ADB001E9055
:104AA0001F911C401A4200D0FCE60022314B062721
:104AB000069207930DE7229B0393219B0293042305
:104AC00001932D4B7BE7002208980999264BFEF7AE
:104AD000A5FF002800D02FE7002E4FD101362BE78D
:104AE0000323229A1340012B66D0202CA6D00B9BC7
:104AF000002B1FD02D235246135501349EE75546F7
:104B0000202CB9D030233A19002F08D0172006A93D
:104B1000013409180B55202CAED09442F6D10CABC1
:104B20009A462E2352461355013462E72024CCE6E0
:104B3000202C83D0229B5B0708D4229B1B0700D428
:104B40007CE7202352461355013477E72B23524646
:104B50001355013472E7C046FFFFEFFFFFFFEF7F01
:104B600065CDCD4165CDCDC10000E03FECB7011072
:104B7000E4B7011080842E41F4B70110F30700D48C
:104B8000DAE60136D8E6219B013B2193A34200D906
:104B900046E7AAE7229B0393219B029303230193F9
:104BA000074B0CE7074BEA009B185C681B682F005B
:104BB0000693079400248CE6219B002B95D022E7D6
:104BC000F0B70110D0C50110F0B55746DE464E468D
:104BD0004546E0B5A5B01F002E9B91460D93CA4AED
:104BE000CA4B82468B461A60002900D129E2002375
:104BF00038789846002800D12BE2C54B44460C93E8
:104C0000C44B55464E460E930AE0631C984622005C
:104C100033005946A84744463878002800D187E039
:104C200001372528F1D108239A46043B9946023BD7
:104C30009846013B00229C460B943878791C03006F
:104C4000203BDBB2102B03D80C9C9B00E3589F4603
:104C50000300303B0B9C0B92092B3AD9002398465A
:104C60002A2800D1DDE000239A462E284BD00300ED
:104C7000683BDBB2122B1ED80E9A9B00D3589F467E
:104C800063460F001A43D8E743460F001A43D4E7A0
:104C90004B460F001A43D0E710230F001A43CCE70E
:104CA00053460F001A43C8E780235B000B9A7878BD
:104CB0001A430B9201310F0067284FD82428A4D93A
:104CC0000300253BDBB2422B9FD893499B00CB5876
:104CD0009F46002398460B9B47469C4600E00131C7
:104CE000BB00DB195B001F180878303F0300303B26
:104CF000092BF4D963460B930023B8469A460F005C
:104D000001312E28B3D180200B9AC00002430B92B0
:104D100030225242944678780B0084446246092A35
:104D200000D8AAE12A2800D1B9E10F0001319EE79D
:104D3000A046AA46B146C84503D301235B424B4473
:104D400098464B46424659460020D047200025B0A1
:104D5000F0BCBB46B246A946A046F0BD0100693989
:104D6000C9B20F2900D950E701238B409C466B4BF9
:104D7000994663464A4613400F9362464B461A4291
:104D800000D068E10A2956D0072900D03DE70D9BE5
:104D900002CB9846002900D092E10B9B10211A000B
:104DA0008A43100011310843814680201A00C00058
:104DB0000240110003421CD114AB9C461F220F235A
:104DC00062440D959C4615000F9B0B9402E0202B2E
:104DD0000CD0110064460C4020003730092C00D85C
:104DE00007380133E8540A090F29F0D80B9C0D9DB0
:104DF0000F934B46082206935346059208320392BE
:104E0000002204930F9B029201931CAB220000939B
:104E1000594633002800FFF78DF9434604000D93EF
:104E2000FAE60D9B04CB9046002A79DB78780D9347
:104E30000F00013117E70D9B02CB14930B789C46B2
:104E400018005346002B00D134E1002815D05346FA
:104E5000013B013399460D940B9C89444A460B0053
:104E6000A14601E0934203D05C780133002CF9D1D4
:104E70004A465B1A0D9C0B920F938023DB009946E8
:104E80000B9A13400D934B461A4204D00F9B534587
:104E900001D953460F93022399460B9A13400B9363
:104EA0004B46134200D1F5E16346002B00D1D6E119
:104EB0000D9B002B00D182E10B1BD14631009A469D
:104EC0003B00A1442E005F464D4622009B4689468A
:104ED00009E04B463900541CB0475346185D002882
:104EE00000D192E122009542F3D14B465A46A946A1
:104EF000BB46350017001E004C460B9B002B00D014
:104F0000ADE1149B0D9387E6C94B0010EC4E0020D9
:104F100030C4011074C40110C0C4011041900000DD
:104F20000B9A283802430B924246524278789046B8
:104F30000F000D93013196E678786C2800D15DE181
:104F400080230B9A5B001A430B920131B3E6802356
:104F50009B00ABE67878682800D148E180230B9A63
:104F600001311A430B92A6E6672800D1B2E0472828
:104F700000D11AE1452800D11CE10B9A07210492C7
:104F800042460D9B0392073352468B43190002920F
:104F90000CC92800009201930D912200330059465C
:104FA000FFF700FA040037E6462800D18DE00B9A9F
:104FB0000721049242460D9B0392073352468B43CE
:104FC000190002920CC92800009201930D91220051
:104FD00033005946FFF718FC04001DE6631C984691
:104FE0002200330059462520A847444614E60D9B6D
:104FF00004330F93631C99460B9B9A0700D40AE174
:105000000D9B2200187859463300A8474346444474
:10501000012B00D86FE1B0462E0025004C46B94662
:105020005F4622004346013439002020B047AC429D
:10503000F7D12C00BB4635004F4646460F9B0D93DB
:10504000EAE5D64B38789A4600239846002800D0E7
:10505000D3E500246FE66F2842D000D8FDE110238D
:10506000782800D19BE00B9A9A430B920A239C4626
:10507000002314930A330F9338E057460B9AB90074
:10508000C919490001330F181878303F0100303931
:105090000929F4D9BA460B921F00591CE7E50D9B6C
:1050A000B87804CB0237D143C9170A4092460D9312
:1050B000791CDCE5002800D1DFE602235B42C8E66C
:1050C00021200B9A0243914676E620230B9A1A433D
:1050D0000B926CE780230B9A1B011A430B924CE74F
:1050E00008239C460023149308330F930B988023C6
:1050F0000200DB001A4011000200184200D080E0DC
:105100000C239A431000802302009B001A400B924C
:10511000184200D0F1E0802302005B001A40914663
:105120000D9A04321492184200D0C3E2430600D50F
:10513000D7E0030600D421E30D9B1B880993002BC5
:1051400000D02DE110339843002900D128E100233D
:10515000994643460593534604930F9B0690039349
:10516000002302934B4601931CAB22000093594647
:1051700033002800FEF7DEFF0400C2E6582809D0FD
:10518000622800D0E3E202239C46002314930233FA
:105190000F93ABE720230B9A1A430B92103B9C46CC
:1051A0000023149310330F93A0E780230B9A1B0165
:1051B0001A430B9220230B9A1A430B92DDE60B1B2A
:1051C0009A460F9B99463B0037005E469B4622005D
:1051D0003B003100A84753460134185D0028F6D142
:1051E0004B460F935B46B3463E001F0085E6C02347
:1051F0000B9AB8781A430B92F91C5CE5C0239B000C
:10520000F6E70D239A4310007DE75B463500BB4669
:105210004E461F0071E64346012B66D9631E434488
:1052200032002E001D003B00A2465F4691469B4681
:1052300022004B46013439002020B047AC42F7D160
:105240005B463500BB464E46A14654461F000D9BAB
:105250004A461878594633004444A847EEE60F9B67
:10526000A146984500D84CE64444E41AB0462E00C6
:1052700025004C46B9465F462200434601343900BA
:105280002020B047AC42F7D12C00BB4635004F463A
:10529000464636E60F98804500D873E24346E2184A
:1052A000131A32002E001D003B0091465F469B46BC
:1052B0000F9122004B46013439002020B047AC4208
:1052C000F7D15B46BB461F0043460F9901330F934E
:1052D0000B7835009C464E466046002800D0E7E536
:1052E0000FE60D9B1B78099329E70D9B2200187888
:1052F00059463300A8474C46A0E60D9AFA3BFF3BBF
:1053000007329A430133994691444B460D931368F3
:10531000526815921A4306D1103290430022099226
:10532000002900D083E06122810600D54122D2B25B
:105330000A9214AA91460A9A00210A3A0B9242460E
:105340001792524618925A46B24609911E001F31D2
:10535000149B4944BB4616941A9500246746984608
:105360008946159D19901B920AE03032D2B24B4605
:1053700001341A55A8454CD0202C4CD006000D0005
:105380003A00002330002900FEF7E0F8D2B2092AE3
:10539000EBD90B9B9C466244D2B2E8E785400010F3
:1053A0006123820600D54123DBB20A3B0B934346BF
:1053B00014A91F228C46159353466244B2460D949D
:1053C00017974C468046A9461700099D0F9E1693D5
:1053D00008E03033DBB201343B55B5420ED3202C0C
:1053E0000CD0050031002800FEF772F8CBB2092975
:1053F000EFD90B9A94466344DBB2ECE7159B404629
:105400009846169B4D465646A1469A460D9C179FB8
:105410009FE6B742B0D9179B56469846189B5F4601
:105420009A461B9B09949B46169C19981A9D4346C5
:105430000593534604930F9B069003930023029316
:10544000099B01931CAB22000093594633002800AE
:10545000FEF770FE0400FFF7DFFB10230B9A9A4360
:105460000F92692800D091E10B9980230A00DB009C
:105470001A4010000A00194203D0112118008A4373
:105480000F920F9A802311009B0019408C461A42FC
:105490005BD1802311005B00194089460D990431CE
:1054A0000B911A4200D0B2E013005B0600D4EDE08D
:1054B0000D9B1B781A00D90F0D91002B00D1A3E092
:1054C000100014AA944642461F2315925246634484
:1054D000A846BA464D461494B14604001F001692E1
:1054E00001E0202D0FD020000A21FDF7F1FF01354A
:1054F0007E193031317020000A21FDF7E9FF2600C6
:105500000400092EEDD8159B4E46A94645469846FF
:10551000169B57469A46149C0F9B06934346059349
:10552000534604930A2303930D9B02934B46019326
:105530001CAB22000093594633002800FEF7FAFD09
:105540000B9B04000D93FFF767FB07220D9B0733AE
:105550009343013294469C4462460D920CCBD90F82
:105560000B911100194300D19BE0D91713911291AF
:105570005140109113995940119110981199129A14
:10558000139B801A99411090119114AA9446424697
:105590000023159252469946169232001F336344F7
:1055A000A8464E46BA4614941F00109C119D914681
:1055B00001E0202E10D0200029000A220023FDF750
:1055C000C5FF013630322B00BA550D002200040011
:1055D000002BEED1092AECD8159B10941195454665
:1055E00098464B46169AB14657461E009246149C62
:1055F0000F9B069343460593534604930A23039354
:105600000B9B02934B461CE7002885D159E70D9B65
:105610001B68DA0F1100002B00D1A6E0DA179818EA
:10562000504014AA91461F2342464B44A8460D946D
:10563000169704006546B1461F001491159201E0CB
:10564000202D0FD020000A21FDF742FF01357E19E1
:105650003031317020000A21FDF73AFF26000400A6
:10566000092EEDD8159BAC4645469846149B4E46F0
:1056700019000D9C169F0F9B0291069343460593BC
:10568000534604930A230393634650E713001B0613
:105690006ED50D9B00229B5ED9175A184A4092B2D4
:1056A00009E7002399460028A2D100220023109286
:1056B00011936AE70D9B1B689946002B03D11033A9
:1056C0009843002938D16123820600D54123DBB2FB
:1056D0000A3B0D9343461693534614A91F228C464A
:1056E00017932B0062444D46B24615941897804696
:1056F000170099460B9C0F9E08E03033DBB2013453
:105700003B55B5420ED3202C0CD0050031002800AB
:10571000FDF7DEFECBB20929EFD90D9A944663441A
:10572000DBB2ECE7169B40469846179B56464D4623
:105730009A460B94189F159C434605935346049331
:105740000F9B06900393002302930B9B0BE50B9991
:1057500080230A00DB001A4010000A00194200D022
:105760008BE610239A430F928BE6002883D158E7EB
:105770000D9B1B68D9175A184A409CE60D9B1B6865
:105780000993DCE4030001330F93A5E50B926DE46C
:105790000CB430B585B008AC08CC064D0A000094B6
:1057A000010028000394FFF70FFA05B030BC08BCD5
:1057B00002B018477D40001010B5054C82B0009330
:1057C00013000A0001002000FFF7FEF902B010BD2F
:1057D0007D40001000B585B0039101210290009337
:1057E000034813004A4202A9FFF7EEF905B000BDD5
:1057F0009543001010B5094A0300146884B0002CCA
:1058000008D0012200910648524203A9A047012076
:1058100004B010BD00F018FA0020F9E7EC4E0020AB
:105820008543001000BEFDE77047C046094A0300EB
:105830001068002805D00849C3188B4207D81360A8
:10584000704706480449C31810608B42F7D90120FD
:105850004042F5E7E44A00200000042010570120F0
:10586000030010B508001100002B05D1044B1A6885
:105870005B6800F03FF910BD01204042FBE7C046E5
:10588000C8C301100300013B10B508001400012B30
:1058900006D801230022210000F0ACF8200010BD42
:1058A00001204042FBE7C046012040427047C0460D
:1058B000012040427047C04610B5FFF7B3FFC04615
:1058C00070B50A48FDF772FDFDF740FC084D094E22
:1058D000B54209D20024013E761BB60808CD984790
:1058E00023000134B342F9D170BDC046001004203A
:1058F00008B3011010B30110030010B50800110027
:105900001B68984710BDC046F0B5C64600B5437D3C
:1059100007000D001600002B38D0002A2EDD0021D4
:105920006A1E90466A5C037D4C1C00200A2A0CD03B
:10593000A64216D043461B5D21000D3B5A425341FF
:105940006A5CDBB24C1C0A2AF2D1002BF0D18842EF
:1059500017DB022110483B689847A64207D0200079
:10596000E8E7864203DD311A3B6828189847AD19ED
:10597000013D2B780D3B5A4253413B7580BCB846E4
:10598000F0BD091A3B6828189847E2E70368110040
:1059900028009847F2E7C04620C60110F8B50B680A
:1059A0000D005A1CCB180A601871802A00D0F8BD6F
:1059B0000E4B1C68002C15D00D4E0F1D02E0246903
:1059C000002C0FD02368002BF9D03368002B01D0B6
:1059D000A342F4D1200039002A68FFF795FF24691B
:1059E000002CEFD100232B60E1E7C046D84A00200D
:1059F000E04A0020F0B5DE4657464E464546E0B543
:105A000085B017001C0006000D00FDF733F90023D8
:105A1000314A12184B41802109068B4202D30122E0
:105A20002E4B52422E4908008A4615F0ADFB0190DC
:105A30006B1C03D1300012F08FFF0500002C26D024
:105A4000284B9846284B1C68002C15D0002F21D1DC
:105A5000264F02E02469002C0ED02368002BF9D0D9
:105A60003B68002B01D09C42F4D120002A00310079
:105A7000C0472469002CF0D1019B002B28D12800BD
:105A800005B0F0BCBB46B246A946A046F0BD184BD7
:105A90009846D7E7154B994602ABDF1D0A239B4674
:105AA00002E02469002CE7D02368002BF9D04B4694
:105AB0001B68002B01D0A342F3D12A003100200043
:105AC000C0475B460122390020003B70C047E8E731
:105AD000504615F089FBD2E740420F00FFFFFF7FE1
